:020000040800F2
:10000000E0900024AD04000831BE000809B90008E2
:1000100029BE0008894C000851EA000800000000D1
:1000200000000000000000000000000001C1000806
:10003000515100080000000051BE000839C10008FD
:10004000CB040008CB040008CB040008CB04000854
:10005000CB040008CB040008CB040008CB04000844
:10006000CB040008CB040008CB040008014D0008B5
:10007000114D0008214D0008314D0008CB04000847
:10008000CB040008CB040008CB0400089151000801
:10009000A1510008CB040008CB0400085951000806
:1000A000CB040008CB040008CB040008CB040008F4
:1000B000CB040008CB04000831C20008CB040008C0
:1000C000CB040008CB040008CB040008CB040008D4
:1000D000CB04000839CD000849CD0008CB04000846
:1000E000CB040008CB04000800000000CB0400088B
:1000F00061C2000851C20008CB040008CB0400080C
:10010000CB040008CB040008CB040008CB04000893
:10011000CB040008CB04000841C20008CB0400084F
:10012000CB040008CB040008CB040008CB04000873
:10013000CB040008CB040008CB040008CB04000863
:1001400000000000000000000000000000000000AF
:10015000CB040008CB040008CB040008CB04000843
:10016000CB040008CB040008CB040008CB04000833
:10017000CB04000839BE0008CB04000800000000D2
:10018000CB040008CB040008CB040008CB04000813
:10019000CB040008CB040008CB040008CB04000803
:1001A000CB040008CB040008CB04000800000000CA
:1001B000CB040008CB040008CB040008CB040008E3
:1001C000CB040008CB040008000000000000000081
:1001D0000000000000000000CB0400080000000048
:1001E000000000000000000000000000000000000F
:1001F0000000000000000000CB040008CB04000851
:10020000CB040008CB04000800000000CB04000869
:10021000CB040008CB040008CB040008CB04000882
:10022000CB04000800000000CB0400080000000020
:10023000CB040008CB04000800000000CB04000839
:10024000CB040008CB040008CB040008CB04000852
:10025000CB040008CB040008CB040008CB04000842
:10026000CB040008CB040008CB040008CB04000832
:10027000CB040008CB040008CB04000800000000F9
:10028000CB040008CB040008CB040008CB04000812
:1002900000000000CB040008CB04000800000000B0
:1002A00000000000CB040008CB040008CB040008C9
:1002B000CB040008CB040008CB040008B1510008AF
:1002C000CB040008CB040008CB04000800F002F8BF
:1002D00000F0DCF814A696E8000CB244B344DA450A
:1002E00001D100F0D3F8BAE80F000FA696E830006D
:1002F000A5EB040504EB0607AAEB0704A7F1010729
:100300004FEA15154FEA3414A4F10104AC4201D3AD
:1003100000F0BCF813F0010F18BFFB1A43F0010303
:1003200000F001F8DBE71847F8790200187A0200BC
:100330000A444FF0000C10F8013B13F0070408BF0B
:1003400010F8014B1D1108BF10F8015B641E05D0A9
:1003500010F8016B641E01F8016BF9D113F0080F5E
:100360001EBF10F8014BAD1C0C1B09D16D1E58BFF0
:1003700001F801CBFAD505E014F8016B01F8016B27
:100380006D1EF9D59142D6D370470000704700002A
:100390000023002400250026103A28BF78C1FBD88E
:1003A000520728BF30C148BF0B6070476E2901F06B
:1003B0008986702901F0CD87662924F0F9866529A0
:1003C00024F0F686672924F0F386612924F0F2866A
:1003D00003681B0A28BF41F08001692901F03686B5
:1003E000642901F03386752901F030866F2901F008
:1003F0005B87782901F09987E92901F0F586E429DE
:1004000001F0F286F52901F0EF86EF2901F0588717
:10041000F82901F098870368DB0928BF41F08001C3
:10042000632903F0C285732903F0C785E32903F02C
:10043000E585F32903F0EA85002070471FB524F015
:1004400028FE9DE8030000F093FB01F013FD04007B
:100450000020002124F054FB401C6060002000219B
:1004600024F07AFBE0600020002124F05FFB206193
:1004700001F092F900F0C4FE00F08EF91FBD10B536
:10048000002001F057F900F024FF10BD01F0CCFC72
:100490001146FFF7D3FF20F013FE03F012F903B467
:1004A000FFF7EDFF03BC20F05FFA00000A48804729
:1004B0000A4880470A480047FEE7FEE7FEE7FEE7F6
:1004C000FEE7FEE7FEE7FEE7FEE7FEE70548064932
:1004D000064A074B704700007151000859C10008D7
:1004E000CD020008E08A0024E0900024E08C002483
:1004F000E08C0024704753EA020C00F069802DE97B
:10050000F04B4FF00006002B1FBFB3FA83F503FA40
:1005100005F424FA05F65E4012BF1643B2FA82F5DE
:1005200002FA05F4C5F120051EBF22FA05FC44EAD3
:100530000C04203556EA044C4FEA144418BF641CDE
:100540004FF000084FF00009904271EB030C39D3D3
:10055000002919BFB1FA81F701FA07F6B0FA80F75E
:1005600000FA07F6C7F120071EBF20FA07FC46EA8B
:100570000C062037B6FBF4FCA7EB0507103F07F08D
:100580001F0BCBF120062CFA06F60CFA0BFB44BF2E
:10059000B3460026202FA4BF5E464FF0000B5BEA57
:1005A000060C08BF4FF0010B19EB0B0948EB0608CE
:1005B000ABFB027C06FB02CC0BFB03CCC01B71EB3C
:1005C0000C01C1E70B46024641464846BDE8F08BA8
:1005D00013B5084318BF4FF0FF300146AFF300805A
:1005E000BDE81C4070470B460146184600F0FCB9B8
:1005F000032A40F2308010F0030C00F0158011F84F
:10060000013BBCF1020F624498BF11F801CB00F826
:10061000013B38BF11F8013BA2F1040298BF00F87A
:1006200001CB38BF00F8013B11F0030300F0258037
:10063000083AC0F0088051F8043B083A51F804CB5E
:10064000A0E80810F5E7121D5CBF51F8043B40F824
:10065000043BAFF30080D20724BF11F8013B11F82F
:1006600001CB48BF11F8012B24BF00F8013B00F873
:1006700001CB48BF00F8012B704710B5203AC0F0FD
:100680000B80B1E81850A0E81850B1E81850A0E865
:100690001850203ABFF4F5AF5FEA027C24BFB1E8FE
:1006A0001850A0E8185044BF18C918C0BDE8104041
:1006B0005FEA827C24BF51F8043B40F8043B08BF4A
:1006C0007047D20728BF31F8023B48BF11F8012B11
:1006D00028BF20F8023B48BF00F8012B704702F00A
:1006E000FF0343EA032242EA024200F00AB802F0A2
:1006F000FF0343EA032242EA024200F024B84FF02B
:1007000000020429C0F0128010F0030C00F01B80DE
:10071000CCF1040CBCF1020F18BF00F8012BA8BFEC
:1007200020F8022BA1EB0C0100F00DB85FEAC17CB0
:1007300024BF00F8012B00F8012B48BF00F8012B63
:1007400070474FF0000200B5134694469646203994
:1007500022BFA0E80C50A0E80C50B1F12001BFF47A
:10076000F7AF090728BFA0E80C5048BF0CC05DF8E0
:1007700004EB890028BF40F8042B08BF704748BF2E
:1007800020F8022B11F0804F18BF00F8012B7047A2
:10079000704770477047000008487CB57844009067
:1007A00007487844009C0546019004E02046016813
:1007B00008448047241DAC42F8D17CBD5C7802001F
:1007C00062780200704770B5064600F0ADF9056822
:1007D00006F10B0020F00704B4429CBF002070BD5E
:1007E0002B466A68BAB11068A04210D304F1080120
:1007F00088423CBF5068586007D351681019416067
:100800001168091B016058601460101D70BD13460B
:100810005268002AE7D12146284600F095F90028C1
:10082000DED170BD70B50446051F00F07DF900688B
:10083000002C14BF446870BD002C18BFAC423CBFF4
:1008400020466468F8D301680A18AA4218BF4560B8
:1008500003D12A6805461144016028684119A14264
:100860001CBF6C6070BD61686960216808442860C5
:1008700070BD2DE9F04791460C46804600F054F9D2
:100880000768604234EA000001D1042C02D205203E
:10089000BDE8F087601E40F0070609F10B0020F06C
:1008A00007054D4539D93B467A6882B31468101D57
:1008B000404206EA000C644525D9A4EB0C008542B1
:1008C00021D8BCF1000F0BD0104601686244A1EBA7
:1008D0000C01116041685160C0F800C058600346C7
:1008E000116805F10800814205D35019491B0160C8
:1008F00015605860034652F8040F58600020C8F88D
:100900000020BDE8F08713465268002ACED1294660
:10091000384600F019F90028C5D10620BDE8F08757
:1009200010B500F009F9006810BD10B5044600F0DC
:1009300003F9046010BD000070B50446C06881076B
:1009400013D0800601D5A56A04E0A1696068084457
:100950002169451A204600F00FFC00220646294670
:10096000204600F02BFB304670BD002070BD70B5F6
:1009700010B1BDE87040DFE70025074C6E1E07E0B0
:100980002046FFF7D9FF00B13546206D20F0010465
:10099000002CF5D1284670BDE001002424F00BB8EE
:1009A000CA68431C0FD00D4B1A420CD1D3070AD092
:1009B00081F825004B680B6300238B6012F0C06F39
:1009C0000B6003D004E04FF0FF30704742F000723C
:1009D000034B1A40034B1A43CA607047802008003B
:1009E000BFFFDFFF001048002DE9F0410746154624
:1009F0000E461020FFF7E7FE040013D06760C4E93D
:100A000002650948AFF3008000F092F801682160A8
:100A100006490460002008600348AFF3008000200E
:100A2000BDE8F0810120FBE7100000240C00002449
:100A300070472DE9FC470E4681466F4601F13802AA
:100A40000146384600F039FE04004FF0FF3824D547
:100A500000F072F8042101600CE0B568002D0CDC98
:100A600031463878002200F0B7F9401C02D0641EED
:100A70007F1C12E04046BDE8FC87A54200DD25460C
:100A800039462A467068FFF7B3FD70682F44284442
:100A90007060B068401B641BB060002CDDDC484611
:100AA000E9E701F058B90000421C0DD0CA6812F401
:100AB000025F09D1D20707D091F84820012A03D854
:100AC00005D191F849303BB94FF0FF3070471AB962
:100AD0004FF0000381F8493001EB420302F10102BB
:100AE00081F84820A3F84000CA6812F0C06F02D114
:100AF00042F08062CA60064B42EA030222F04002E2
:100B0000CA600A68002AE1DD52420A6070470000AC
:100B1000001040000020704710B501F0ABF9001D37
:100B200010BD00BFDD3F020000487047E402002412
:100B3000004870471403002400487047DC0200247A
:100B4000704770477047704738B504460A46002022
:100B50006946AFF30080002808BF38BD02460099FF
:100B6000204601F08BF9012038BD012002F0C0BD04
:100B7000F8B5AFF30080054600200C460C2000BFFE
:100B80000646A819A0420DD9324669460020AFF3A7
:100B90000080070008BF02F0ABFD0098A04218BF1C
:100BA0000546C419FFF7C0FF05600746F01D20F099
:100BB00007004619284600F00AF8B44208BFF8BDFD
:100BC000A21B31463868BDE8F84001F057B9002152
:100BD0000160416070470C20704770B50D460646B5
:100BE000041FFFF7A1FF0268BDB1DEB105F10B00E4
:100BF00020F00701A9423CBF002070BD23688B4252
:100C000038BF506813D35A1A082A36D3601840F8F0
:100C1000042B2160FFF706FE2FE03046FFF702FEAF
:100C2000002070BD2846BDE87040FFF7CCBD00280D
:100C300018BFA0423CBF02464068F8D303EB040C47
:100C400084451CD1D0F800C06344994217D8A3EB67
:100C5000010CBCF1080F0DD3D0F804C06318C3F821
:100C600004C0D4F800C000686044401A18602160D5
:100C7000536002E0236040685060201D70BD28462C
:100C8000FFF7A1FD050008D031462068021F284665
:100C9000FFF7F3FC201DFFF7C5FD284670BD10B51A
:100CA00001F006F900F0080010BD2DE9F0410F46F3
:100CB000134615460A4606460021084601F046F945
:100CC0000446401CFFF77FFD306030B1611C2B46AD
:100CD0003A46BDE8F04101F039B94FF0FF30BDE8C8
:100CE000F08100000FB41CB50C0007AA009007D0DB
:100CF0004142A14202D32044401E01E04FF0FF30A8
:100D0000074B7B4469460190069801F0F4F90021F5
:100D1000002C01D0009A11701CBC5DF814FB00007F
:100D2000171400007CB51D4616460C00009007D035
:100D30004142A14202D32044401E01E04FF0FF3067
:100D4000064B7B442A4669460190304601F0D3F9B0
:100D5000002C02D0009A002111707CBDD713000036
:100D600000B58DB0099000920B904FF0FF300A90C3
:100D700000200C90054878440690054878446A465F
:100D8000079009A801F0F8FF0DB000BD1F2000007A
:100D9000372000000FB400B58DB010A90990009164
:100DA0000B904FF0FF300A9000200C9006487844DA
:100DB0000690064878446A4607900F9909A801F002
:100DC000DBFF0DB05DF814FBE71F0000FF1F000004
:100DD00002F05EB802F0A4B82DE9F05F05461746B0
:100DE0000C46C86820F4201040F48000C8608006DB
:100DF00002D5084600F0E3F9E06841F282014FF0C5
:100E0000FF3A0140022903D0204600F075F9B9E00D
:100E100000F42041B1F5004F0FD1C00306D5616841
:100E2000E06A884200D80846606006E02069E06217
:100E3000606060691FF09CFDA061A0680022EEB2B6
:100E400000280DDAE1688B050AD4C043A06041F4A4
:100E500090302260E0606068411C61600670AAE02A
:100E6000E0689146226040F40050E060206978BB61
:100E700060691FF081FD04F124054FF00108A8B15D
:100E8000A08910F4407F08D0E069FFF79CFC206146
:100E900018B1E06840F4006017E0C4F81C802561D8
:100EA000E06820F4407040F480600EE0E069FFF7F5
:100EB0008AFC00282061F0D0E06840F4006010F463
:100EC000407FE06002D140F48070E06020696060A3
:100ED000E06825696FF0010BC1051ED56168E06A05
:100EE000884200D80846411B04D02246284600F01C
:100EF0000DF9E8BB1FB1E562C4E9015959E0681C6E
:100F0000E0626060E069401EA060E06840F480300C
:100F1000E06030462E70BDE8F09F17B100F48032DB
:100F20000AE06068411C61600670E0680A2E40F4C7
:100F30008030E06006D00022E16A6068814203D917
:100F40000B4602E00122F7E70346B4F80CC05B1B36
:100F50005FEA4C5C04D4D4F81CC09C4500DD02B3AD
:100F6000814200D80146002BA1EB0008E56200E0B9
:100F700008E0C4E9015907DD22461946284600F079
:100F8000C5F808B15046C6E7B8F1000F09D0A1690D
:100F9000E5626560A1EB0800A061E06840F0100028
:100FA000E06047B16168A069E562491B084465607B
:100FB000A0615846AFE73046ADE700002DE9F041AB
:100FC000044616460D464769007B80072ED03846FA
:100FD0001FF0D2FC50BB3EB3012E02D0022E25D111
:100FE00004E0204600F066F805441DE038461FF096
:100FF000BFFCE168002841F01001E16005DA2046FD
:1010000000F07AF80120BDE8F081C9030BD56268D1
:10101000E16A914200D81146A26911442269891AF5
:10102000814200DD08460544002D01DA0220EAE78E
:10103000E16A6068E268814206D29103E06203D50A
:1010400022F4003141F01002A6690027AE4213DC01
:10105000E16A814201D90B4600E0034603EB060C2E
:101060002369ACEB030CAC4506DD814201D98C460B
:1010700000E084469C4505D1A760276042F020002F
:10108000A5620DE0AD1BE669AE1B8142A66000D9EA
:101090000846C01A281A20605819606022F0200003
:1010A00003490840E060002084F84870ABE7000086
:1010B000BFCFD7FF10B50146C268900703D0900696
:1010C00007D5886A0AE0FFF737FD01210160881E15
:1010D00010BD8B69486818440B69C01A91F84830F4
:1010E0001BB191F84910401A10BD1103FCD500281E
:1010F000FADD401E10BD0000C16821F4001141F06E
:101100008001C16000218160016070472DE9F74FC7
:1011100015460C464FF0FF3B3848D768D2F814A06C
:10112000074209D05046A9691FF046FC002819DB88
:101130003248C0430740EF604FF000496FF000486D
:101140004C4501D3464600E0264600993B465046B2
:1011500032461FF035FCA96920F00042B21A114452
:10116000A96128B12846FFF7C7FF5846BDE8FE8FA2
:10117000A41BE5D10020F9E770B504460569C06AF3
:101180006168884200D80846E16821F42011E160D6
:10119000C90312D5A84208D02246411B2846FFF7B2
:1011A000B5FF10B14FF0FF3070BD0020E562C4E91B
:1011B0000150E06820F48030E060002070BD10B580
:1011C0000446C06820F02000E060A16AA06988425F
:1011D0000DD02046FFF7D0FFE06820F4405040F0EB
:1011E0001000E060A06AA0612069E062606044F2E3
:1011F0004001E0688843E06010BD0000100002007C
:1012000010B542485421FFF79CFA41485421FFF79A
:1012100098FA40485421FFF794FA3F493B483C4A2A
:101220003F4B08603D490A603A491960531C036509
:10123000481C1065012008653B48344A39A17844B0
:1012400000F07AF820B9384878440A3802F049FAB0
:1012500037482F4A35A1784400F06EF820B9344859
:1012600078440A3802F03DFA32482A4A2FA17844DD
:1012700000F062F820B92F4878440A3802F031FAB9
:1012800040232248DC000021224602F012F920B15E
:1012900025487844543802F024FA1D482246402359
:1012A000002102F006F920B121487844543802F0B8
:1012B00018FA184822461023002102F0FAF80028F4
:1012C00006D01C487844BDE81040563802F009BAF0
:1012D00010BD104870B5006D20F001040B4800F0FF
:1012E000A3F80B4800F0A0F80A4800F09DF809E0C8
:1012F000206D20F00105204600F096F82046FFF70B
:1013000091FA2C46002CF3D170BD0000E0010024BE
:101310003402002488020024000000240400002479
:1013200008000024720000009240020077000000D4
:101330007E4002006A4002002DE9F0410C4616464C
:10134000070047D0104600F06FF82078611C612834
:101350000AD0722802D077283CD102E0012500246F
:1013600005E00225042402E0082448F2020511F8F1
:10137000010B2B2806D0622809D011F8010C742823
:101380000AD00BE045F0030544F00204EFE745F016
:10139000040544F00104EAE744F01004384621460D
:1013A0001FF0F2FA411C15D00021316171604FF439
:1013B0000071F560F1617061200704D530460222AA
:1013C0000021FFF7FBFD306D40F001003065304635
:1013D000BDE8F0810020FBE72DE9F0410D4606460F
:1013E000104C206DC10704D0410804D020F0010446
:1013F000F7E722460EE05420FFF7E5F907000ED08C
:10140000206D47F001010843542120653846FFF75D
:1014100098F93A4629463046BDE8F0418CE700206D
:10142000D6E70000E00100242DE9F04704464FF024
:10143000FF380026C568D4E90497A80718D02046CD
:10144000FFF79AFE38461FF08BFA002800DA46466E
:10145000280502D54846FFF7E5F94C212046FFF75D
:1014600070F9206D20F0010020653046BDE8F0875E
:101470004046FBE72DE9FE430E4617468046002115
:101480000846AFF3008005460020009001905EB151
:1014900030784FF0FF3900B1AFB11DB1D5E900018F
:1014A000CDE9000100240CE00020BDE8FE83315DA1
:1014B0006A46641C02A802F0E4F8411C03D001282B
:1014C00003D0BC42F3D34846EFE71DB1DDE900018C
:1014D000C5E90001B8F1000F03D0BDF80810A8F865
:1014E0000010BDF808000028DFD02046DDE770B509
:1014F0000C4605460AB1104603E004210020AFF374
:10150000008022462946BDE870400346002000F0D6
:101510003DB82DE9F84F9146884605464FF0000446
:101520005FEA030A0E682BD107210020AFF3008089
:10153000824625E016F8011B5246684602F0A1F8E3
:101540000746401C0FD0BF1C1AD01DB1BDF80000CB
:1015500025F81400BDF80000641C58B1002DE9D036
:10156000C8F800600EE0FFF7E7FA04210160384692
:10157000BDE8F88F15B10021C8F80010601EF7E72C
:10158000002DD7D04C45D5D32046F1E702F020B846
:1015900002F05AB82DE9F84F9B4690468946054619
:1015A0000024DDF828A00E685FEA0A0033D1092183
:1015B000AFF3008082462EE0B8F1000F1AD05246F9
:1015C000684616F8011BA8F1010802F05AF8074610
:1015D000401C13D0BF1C1ED01DB1BDF8000025F863
:1015E0001400BDF80000641C78B1002DE4D0C9F8E7
:1015F000006012E09DB1C9F8006010E0FFF79CFAAE
:10160000042101603846BDE8F88F15B10021C9F802
:101610000010601EF7E7002DCED05C45CCD32046ED
:10162000F1E72DE9FF4F91468A46804683B00024BA
:10163000109F0D68A7BB0A210020AFF3008007466A
:101640002EE017B1D7E900B102913A4668462988E1
:1016500000F033F80646401C0BD0B8F1000F16D04E
:101660000698311981420CD9EFB10299C7E900B14E
:1016700019E0FFF761FA04210160304607B0BDE8C8
:10168000F08F08EB040032466946FEF7B1FF288868
:10169000344450B1AD1CB8F1000F01D0CAF800506D
:1016A000B9F10109CDD22046E8E7641EB8F1000F78
:1016B000F9D00021CAF80010F5E72DE9F0411646EF
:1016C0000C460546FFF728FA036893F80101012844
:1016D00007D0FF2C12D8185D80B101202C70BDE816
:1016E000F081D3F807013246214603F20713C718E9
:1016F0002846BC46BDE8F041002360474FF0FF306C
:10170000EDE710B5FFF708FA006890F8011101291C
:1017100001D0012010BDD0F80B0110BD10B5002084
:1017200001F0D8FFFEF7ABFEBDE8104001201FF02E
:101730001BB900002DE9F84306461548AFF30080B9
:10174000FFF7F6F9134F8146E8464D4616E026B1FD
:10175000E068B04201D0254610E0206828600C48BF
:10176000C7F80080AFF30080D4E90101884708483A
:10177000AFF300803968414500D04D462C68002CFD
:10178000E5D1002038600248AFF30080BDE8F8835F
:10179000100000240C0000240148FFF7BBB9000032
:1017A0001000002440EA010310B59B070FD1042A62
:1017B0000DD310C808C9121F9C42F8D020BA19BA1C
:1017C000884201D9012010BD4FF0FF3010BD1AB181
:1017D000D30703D0521C07E0002010BD10F8013BD6
:1017E00011F8014B1B1B07D110F8013B11F8014BFD
:1017F0001B1B01D1921EF1D1184610BD10B5431C20
:1018000002E010F8011B71B18107FAD14FF00132EB
:1018100002C88C1A8C4314EAC211F9D0C01A0A0605
:1018200003D0C01E10BDC01A10BD0A0401D0801E16
:1018300010BD0902FCD0401E10BD01E0801C521EEC
:101840001AB103888B42F9D17047002070470021FC
:1018500001E0801C491C0288002AFAD10846704722
:10186000CBB22AB101788B4203D0401C521EF9D171
:1018700000207047431A28BF9A427EF6B9AE104442
:101880001144032A40F2268010F0030F1EBF11F806
:10189000013D521E00F8013D10F0030F7FF4F6AF3A
:1018A00011F0030300F03B80083AC0F00B8051F8C0
:1018B000043D083A51F804CD40F8043D40F804CD09
:1018C000FFF7F3BF121D5CBF51F8043D40F8043D23
:1018D000AFF30080D20724BF11F8013D11F801CD0C
:1018E00048BF11F8012C24BF00F8013D00F801CDDC
:1018F00048BF00F8012C7047431A28BF9A427EF671
:10190000BCAE1044114410F0030F1EBF11F8013D8E
:10191000521E00F8013D10F0030F7FF4F6AF103AAD
:10192000C0F00A8010B531E9185020E91850103A7B
:10193000BFF4F9AFBDE81040530724BF31E90810E8
:1019400020E9081044BF51F8043D40F8043D12F06E
:10195000030F08BF7047D20728BF31F8023D48BFC8
:1019600011F8012C28BF20F8023D48BF00F8012CD7
:10197000704700000000000030B44FF0013C50F808
:10198000042BCCFA52F451F8043BD51A20D1FCB9FF
:1019900050F8042BCCFA52F451F8043BD51A17D165
:1019A000B4B950F8042BCCFA52F451F8043BD51AD0
:1019B0000ED16CB950F8042BCCFA52F451F8043B18
:1019C000D51A05D1002CDAD030BC4FF0000070479A
:1019D00029BAB1FA81F111F01801D1F12000844047
:1019E000F2D1CA40CB4012F0FF0213F0FF0330BC2B
:1019F000D01A704770B5054601B90721541A241D45
:101A0000B4F5B67F09DD286800F05DF9A04204DC7A
:101A10002868401C2860012070BD002C05DA286869
:101A2000401E286000F04FF90444072094FBF0F0BA
:101A3000401C70BD2DE9F04F1F4615468B4682466F
:101A4000002689B000F016FAD0F810800024BBF10F
:101A5000000F70D015F8010B10B125280DD10FE043
:101A600024B1641E06A850F82450F3E70021304644
:101A70000AF8061009B0BDE8F08F0AF80600C7E0C2
:101A8000E94615F8010B592870D023DC49286ED09F
:101A900014DC44286DD008DC2528EED041283ED047
:101AA000422849D043282CD156E04528E9D0462881
:101AB00069D0472876D0482823D17AE04D380C28C1
:101AC0001FD2DFE800F0881E061E1E9BA0A9B3B53A
:101AD000C1CFD6E75A38212813D2DFE800F011121F
:101AE00012121212121A2637455012592612741267
:101AF00012797E128012891296A212B3BDCB110008
:101B0000A8E725200AF80600761C5E4513D26D1E54
:101B1000A0E7D8F80010BA69D8F8240011E0D8F886
:101B20000410BA69D8F828000BE0D8F808103A6910
:101B3000D8F82C0005E0B2E0D8F80C103A69D8F8D3
:101B4000300002FB001101EB0809AAE006A840F8EA
:101B50002450D8F818108AE07969642091FBF0F2DB
:101B60001332484668A192E0FA6889E08AE022E0F0
:101B7000FFE706A840F8245065A5641C6AE7FA68E8
:101B800066A1484683E006A840F8245064A5F4E71F
:101B9000384600F0ADF8642190FBF1F201FB12022F
:101BA00058E0FFE7384600F0A3F802465FA1684618
:101BB0006DE0BA6864E0B8680C210B3090FBF1F27C
:101BC00001FB120205E0FA6959A14846521C5EE089
:101BD0003A694DA1F9E77A6852E00A2116E0B8683F
:101BE0000C2802DAD8F81010ADE7D8F81410AAE7DC
:101BF00006A840F82450D8F8341038E006A840F879
:101C000024504DA5B9E73A683AE009210AF80610D0
:101C1000761C5E45B2D342E006A840F8245048A5A1
:101C2000ABE7BA6902B9072248A1AAE700210CE094
:101C3000786900F26C700890D7E9061208A8FFF7DF
:101C4000D9FE06E0BA69EFE70121D7E9062000F0E6
:101C50002EF802462CA1AAE706A840F82450D8F88E
:101C60001C1004E006A840F82450D8F8201001EB1E
:101C7000080582E77969642091FBF0F200FB1212FB
:101C800021A17EE77A69484628A102F26C7200F031
:101C900047F906E00AF80600761C5E4501D30020ED
:101CA000E8E619F8010B00283FF4DFAEF2E7511A1D
:101CB00000D5C91D401A01D500207047072190FBAF
:101CC000F1F0401C704781070CD1642190FBF1F2C8
:101CD00001FB120151B94FF4C87190FBF1F201FB05
:101CE000120018B1002000F26D1070470120FAE7D1
:101CF00008B5416901F26C710091D0E9061268469D
:101D0000FFF778FE009808BD252E32640000000021
:101D1000256D2F25642F25790000000025326400F1
:101D200025592D256D2D2564000000002564000037
:101D3000252E33640000000025483A254D000000A0
:101D400025483A254D3A255300000000252E3164E0
:101D50000000000070472DE9FC4704464FF0FF39B2
:101D6000007B400629D4D4E90E01CDE90001FFF73C
:101D7000C8FC012507464FF0040804F1400A2EE094
:101D8000216800291BDC94F8480050B1C0B2401E05
:101D9000C0B284F8480004EB4000B0F84000BDE851
:101DA000FC870021204601F08EFA0646E068010615
:101DB00003D4400609D5012D24DC4846EFE76068CE
:101DC000421C62600678491E21606A465046F1B2A4
:101DD00001F057FC01281AD0401C02D06D1CBD42F6
:101DE000CEDD6A46D4E90E01CDE900015046F1B2DC
:101DF00001F047FC401C05D02068401C2060606852
:101E0000401E6060FEF798FEC0F80080D5E784F8B9
:101E10004950DDE90001E4E90E012089BFE7000037
:101E200000487047DC0200247546FFF7F9FFAE4614
:101E300005006946534620F00700854618B020B5D6
:101E4000FEF744FBBDE820404FF000064FF00007CE
:101E50004FF000084FF0000BAC46ACE8C009ACE80E
:101E6000C009ACE8C009ACE8C00921F007018D4603
:101E70007047000000487047FC0200240346406899
:101E80008C46002818BF88423CBF03464068F8D300
:101E900018681844884207D00CF1030020F00700AE
:101EA000001D411A521A0146081D0A60FEF7BABC0D
:101EB00010B50446FF2801D9002010BDFEF72CFE06
:101EC0000068005D10F0980F03D0C10701D140F405
:101ED000806010F4846F01D040F4006010F0BA0FFD
:101EE00001D040F4807010F0BE0F01D040F40070BB
:101EF000810604D5010602D440F0800001E020F004
:101F00002000C10701D0410601D5092CD5D140F4EC
:101F1000805010BD0B460146184602F053B8000031
:101F20000FB41CB5084B06AA7B446946009005987F
:101F300000F0E1F804460020694602F027F8204648
:101F40001CBC5DF814FB0000612000007CB51D4640
:101F500016460C00009007D04142A14202D3204413
:101F6000401E01E04FF0FF30064B7B442A46694695
:101F70000190304600F0BFF8002C02D0009A0021FA
:101F800011707CBDAF01000070B504468569006822
:101F9000C10601D5302600E02026C00707D070BD5D
:101FA000D4E9012130469047206A401C20626D1E12
:101FB000F6D570BD70B5044685690078C00707D1B5
:101FC00070BDD4E9012120209047206A401C206286
:101FD0006D1EF6D570BD09684A0501D540B270473F
:101FE000C905FCD500B2704709684A0501D5C0B2E1
:101FF0007047C905FCD580B2704770B50C460546E0
:10200000012A05D02878800600D5EA69002302E07D
:10201000012305E05B1C934202D2E05C0028F9D169
:10202000A869E618C01AA861286A184428622846D8
:10203000FFF7AAFF04E0D5E9012114F8010B90474E
:10204000B442F8D32846FFF7B5FF70BD2DE9F04143
:102050000646002410687529314616A510D0FFF7F2
:10206000BAFF002802DA404213A507E031688A0768
:1020700001D512A502E0490704D511A5012401E00C
:10208000FFF7B2FF00210A2206F1240709E0B0FBA6
:10209000F2FCB0FBF2F302FB1C003030785418461F
:1020A000491C0028F3D123462A463046BDE8F041BA
:1020B00001F086BB000000002D0000002B00000096
:1020C0002000000011680268006A530501D50870FD
:1020D0000AE0D30501D5088006E0130603D5C21730
:1020E000C1E9000200E008600120704701694A1C54
:1020F00002610878704700B58FB0CDE90131002149
:10210000059105497944CDE903101146684600F070
:102110002BF90FB000BD0000E5FFFFFFD1E9002360
:102120009A4202D2531C0B60107070472DE9FF5F7A
:1021300015468A460446DFF8AC80F8440027D8E903
:1021400000103E46CDE9001010E03AF816106A463D
:1021500002A8FFF7B2FA411C07D02178890603D5FF
:10216000E269391891420DD80744761C2078800620
:1021700002D5E069B84205DDAE42E6DB3AF816006A
:102180000028E2D1A069C01BA0612046FFF7FCFE39
:10219000D8E90010CDE90010002017E03AF8181037
:1021A0006A4602A8FFF789FAB0F1FF3F81460BD0DB
:1021B00000250DF1080B05E0D4E901211BF805000D
:1021C00090476D1C4D45F7D308F10100B0428046A1
:1021D000E4DB206A384420622046FFF7EBFEBDE8CE
:1021E000FF9F0000A23102002DE9F0418046D21D80
:1021F00022F007020025D2E90002F52915A614D025
:10220000011E72F1000106DA0023D0EB030063EB3C
:10221000020211A608E0D8F800108B0701D50FA61E
:1022200002E0490701D50EA601251146002408F158
:10223000240704E001F076FA30323A55641C50EA83
:102240000102F7D12B46324621464046BDE8F04117
:1022500001F0B6BA000000002D0000002B000000C5
:102260002000000030B4002100F1240408E002F056
:102270000705D208303542EA4372DB086554491C31
:1022800052EA0305F3D10468002310A2250708D5FC
:1022900004F020040C4304D0C46901230CA2641E82
:1022A000C46130BC01F08CBA10B5044621461068F8
:1022B000FFF79AFE02462046BDE810400023D1E712
:1022C000D21D22F00701D1E90023CBE70000000076
:1022D00030000000F0B40D460188090502D5214CFC
:1022E0007C4402E01F4C7C440E34002100F12406A3
:1022F00008E002F00F071209E75D42EA03721B09CA
:102300007754491C52EA0307F3D1027800231207DD
:1023100004D5702D06D009B1022311342246F0BC39
:1023200001F04EBA01231034F8E770B504460D46AB
:1023300021461068FFF758FE024629462046BDE8B0
:1023400070400023C6E7D21D22F00703D3E9002323
:10235000C0E70368126843F0200303600823C361E9
:102360000023B7E7043002002DE9F05F89460446F8
:102370004FF0000ADFF874B1FB44C0F820A02046FB
:10238000E1688847002874D0252806D0D4E90121C7
:102390009047206A401C2062F1E700265F462046F5
:1023A000E16888472028054607DB312D05D27819DA
:1023B00010F8200C08B10643F1E7B00701D526F06C
:1023C0000406C4F81CA00027C4F818A02A2D09D0C0
:1023D000284622F0E9FA38B304EB8708303DC8F804
:1023E000185019E059F8041B204604EB870291614C
:1023F000E1688847012F054618D1E069002820DAF6
:1024000026F020061DE0D8F8180000EB800005EB50
:1024100040003038C8F818002046E1688847054673
:1024200022F0C2FA0028EED1012F0AD02E2D08D1B9
:102430002046E16888477F1C0546022F46F02006AB
:10244000C4DBA069002803DA404246F00106A0611F
:10245000F00701D026F010066C2D0BD0682D09D0A6
:102460004C2D39D06A2D35D0742D35D07A2D33D0FE
:1024700016E038E0E1682F4620468847B842054616
:1024800009D16C2F26D04FF48060E16806432046C6
:102490008847054604E06C2F1AD04FF4807006433D
:1024A0000DB3A5F14100192802D8203546F4006685
:1024B0004A462946204626604E46FDF777FF80B102
:1024C00001280BD0F61D26F0070000F1080956E799
:1024D0004020E4E78020D8E70020D6E706F1040991
:1024E0004DE7284652E7206ABDE8F09F942F02008E
:1024F0002DE9FF4F1C4691464FF0FF3581B000217A
:102500008A468846D4E90167A16902986D1C88470C
:10251000216A834688470028F6D1BBF1FF3F0CD0E3
:10252000002F26F4C0661ADD700615D5BBF12B0FFF
:102530000AD0BBF12D0F0FD104E04FF0FF3005B0F2
:10254000BDE8F08F46F48066A16902986D1C88474B
:102550007F1E8346002F02DDBBF1300F03D0B9F19F
:10256000000F2AD025E0A1696D1C02987F1E46F459
:1025700000768847002F834605DDBBF1780F06D033
:10258000BBF1580F03D0B9F1000F10D011E0B9F131
:10259000000F02D0B9F1100F0BD1A1696D1C029888
:1025A0007F1E26F4007688478346102000E008202E
:1025B00081464FEAE970009017E00A20F8E74346A9
:1025C000AAFB0928DDF800C07F1E03FB098046F442
:1025D000007605F101050AFB0C0112EB0B0A0298CB
:1025E00041EBEB78A16988478346002F06DD494619
:1025F000584601F00FFD5FEA000BE0D5E169029853
:102600008847B00502D46FF0010098E7F00718D1B1
:10261000700610D55146700505D50023D1EB030196
:1026200063EB080200E042462068031D2360006857
:10263000C0E9001205E02068011D21600068C0E9C2
:1026400000A828467BE72DE9FF5F1D464FF0FF3BC2
:1026500091464FF000085F46D5E90146A969019807
:102660007F1C8847296A824688470028F6D1BAF13C
:10267000FF3F0CD0002E24F4C06419DD600614D591
:10268000BAF12B0F09D0BAF12D0F0ED103E0584645
:1026900004B0BDE8F09F44F48064A96901987F1CF0
:1026A0008847761E8246002E02DDBAF1300F03D035
:1026B000B9F1000F26D032E0A969761E01987F1C7F
:1026C00044F400748847002E824605DDBAF1780F85
:1026D00006D0BAF1580F03D0B9F1000F10D01EE0A8
:1026E000B9F1000F02D0B9F1100F18D1A969761E07
:1026F00001987F1C24F4007488478246102002E071
:10270000082000E00A20814609E0A96908FB0908C1
:10271000761E01987F1C44F4007488478246002E80
:1027200005DD4946504601F075FC0028EDDAE969FF
:1027300001988847A00502D46FF00100A8E7E007E0
:1027400025D1600613D5600502D5C8F1000000E070
:10275000404629680A1D2A600968220501D50870CB
:1027600015E0220701D5088011E008600FE0286815
:10277000011D29600068210502D580F8008006E06F
:10278000210702D5A0F8008001E0C0F8008038469B
:102790007EE72DE9FF5F4FF0000899461446464654
:1027A0009169D2E901A7DDF838B00198884705465C
:1027B00059EA0B0005D009E0A1690198761C884709
:1027C0000546216A284688470028F5D1681C03D0B1
:1027D0005FEACA7005D015E04FF0FF3004B0BDE8E5
:1027E000F09F2068011D2160D0F800800AE05FEAB8
:1027F000CA7001D108F8015BA169761C01987F1E9F
:1028000088470546002F1ADD681C18D0B9F1000F63
:102810000DD0E81705EBD060421120F01F0059F8E9
:1028200022102A1A012090400142E0D107E0BBF1BA
:10283000000FDCD12846216A88470028D7D0E169FB
:1028400001988847BBF1000F07D1002E05DD5FEA34
:10285000CA7002D1002188F80010A068B84203DDD8
:10286000BBF1000F03D017B16FF00100B6E730469F
:10287000B4E700002DE9FF4F06468BB00878FF282B
:1028800006D0491C2D2805D000244FF0000908E08F
:1028900000200CE00124F8E709EB8903491C00EB58
:1028A00043090878FF28F7D114B1C9F10000814627
:1028B000107800252C46AA4629462D2801D02B2821
:1028C00004D1521C2D2813D0002082468B4610784C
:1028D000FF280FD04FF0000C0A21521CA5FB0178F5
:1028E00004FB018105FB0C11C5194BEB0104EEE75C
:1028F0000120EAE7002108464FF00000BAF1000F7E
:1029000002D000EB80004008C0F38157012F01DDA9
:102910004FF0FF370E9955EA040009EB01080BD080
:102920004FF0020918F5FA7F16DA4FEACA70002F45
:10293000706008DD012007E04FEACA70C6E900B008
:102940000FB0BDE8F08F00203060FEF7F5F8C0F85A
:1029500000901821084616E0B8F5FA7F18DD002F20
:1029600002DAF748784401E0F6487844D0E90010EC
:10297000C6E9001040EACA707060FEF7DDF8C0F8E2
:102980000090142108460FB0BDE8F04F22F00DBCB6
:10299000002108464FF00000B8F10001099002DA6A
:1029A000C7F1000200E03A4601DAC8F1000106A8CA
:1029B00001F068FD06AB93E8070003AB83E807006E
:1029C00044F23E005BEA04010090584604D144F210
:1029D0001E012C465D460091210C0904014306D1DD
:1029E0000099240444EA15442D041039009104F0A0
:1029F0007F41014306D10099240244EA15642D0267
:102A00000839009104F07041014306D10099240176
:102A100044EA15742D01091F009104F0404101435F
:102A200006D10099A40044EA9574AD00891E009176
:102A300004F00041084304D100986D196441401E20
:102A400000904FF001033A466846B8F1000FCDE917
:102A5000014503A902DD21F01AF901E021F0EDF8AA
:102A6000BAF1000F04460D4601D084F00044002165
:102A700008464FF00000099940F2FF77484010F0F7
:102A80000C0F07D124F00040284303D0C4F30A50B0
:102A9000B84212D1FEF750F8C0F80090C4F30A50C3
:102AA000B8420AD1A8487844D0E90010C6E900101D
:102AB00004F000410843706042E7C6E900543FE774
:102AC0002DE9FF4F1F464FF0000A4FF0FF384546F3
:102AD00091B0D7E90146CDF83CA0FFF7CBF9C0682B
:102AE0000168405C1090B96912986D1C8847396A7A
:102AF000814688470028F6D1B9F1FF3F0AD0002E61
:102B000024F4D06411DDB9F12B0F08D0B9F12D0FE9
:102B10000BD102E0404615B013E744F48064B96974
:102B200012986D1C8847761E8146600504A901D560
:102B30002D2000E02B20002E01F1010B0DF13008BB
:102B40008DF810003FDDB9F1690F08D0B9F1490FD8
:102B500005D0B9F16E0F02D0B9F14E0F1CD13B4632
:102B600001A8009580E85002DDE912126FF0020022
:102B700022F086FBC11CCED10EE0B96912986D1C03
:102B8000884781461398761E44F4007405600F98B8
:102B9000401C002E0F9016DDB9F1300FEDD0B9F1C9
:102BA000780F02D0B9F1580F0DD10F9801280AD132
:102BB0003B46CDE90054DDE91212001F029622F0D7
:102BC0005DFBC11CA7D1109989453ED144F080041A
:102BD00006E01399681CAAF1010A44F40074086025
:102BE000B9696D1C1298761E884730288146F0D04E
:102BF0002BE01099894505D1200603D4761E44F0B8
:102C0000800418E0484621F0CFFE08B3761E0DF18F
:102C100023029345A9F1300044F4007406D20BF866
:102C2000010B200607D5AAF1010003E0200602D41B
:102C30000AF101008246A00502D51399681C0860BC
:102C4000B96912986D1C88478146002ED1DC53E08B
:102C5000002E51DDB9F1650F02D0B9F1450F4BD10E
:102C6000A00549D5B9696D1C1298761E24F44074EC
:102C70008847002E81460CDD2B2804D0B9F12D0F9A
:102C800007D144F48074B96912986D1C8847761E88
:102C90008146E00501D52D2100E02B2108F8011B1C
:102CA000CDF8008021E0761E0DF13901884544F40D
:102CB00000740CD2A9F1300010F0FF0088F8000079
:102CC00002D10099884509D908F1010806E0E0051C
:102CD00001D51E4801E042F20F708246B969129890
:102CE0006D1C8847814613980560002E04DD484618
:102CF00021F05AFE0028D6D1F96912988847FF20A2
:102D000053468BF8000088F8000000200A900B90D2
:102D100004AA0CA90AA8FFF7ADFDA00502D46FF024
:102D20000100F8E614F0240F12D0E0071CD1386837
:102D3000DDE90A12031D3B600068C0E9001213E0E0
:102D4000E0530200D253020096520200F1D8FFFF76
:102D50000AA9684621F06AFDE00705D13868009AA3
:102D6000011D3960006802602846D4E602681144FB
:102D70001378016018467047D16005497944516164
:102D800004497944116200211161114601F050B9E2
:102D9000EDFFFFFF290A0000426842B1016811F807
:102DA000013B23B1521EC0E90012184670470121B1
:102DB000C160881E704742685AB1C368016843B950
:102DC00083688B4205D0491E521CC0E900120020C6
:102DD00070474FF0FF3070470FB40B0010B54FF045
:102DE00000048AB00FA900910E99CC60234C7C445A
:102DF000234A7A44CDE9064200D004236FF0004212
:102E0000CDE901321F4A7A446B46089202460020FF
:102E100022F032FA0AB010BC5DF814FBF0B5074698
:102E20004FF0FF301E4615460C463B4685B06A46BD
:102E30000091CDE9010131460020049004A8FFF77C
:102E4000CBFF04990346601825B109B1024600E0A2
:102E500022462A6000290ED0002B02DD0099814213
:102E600009D03B466A463146001B0094CDE9010477
:102E700004A8FFF7B1FF05B0F0BD0000A7FFFFFFFA
:102E8000C1FFFFFFA509000000230360FFF7C6BFD5
:102E90002DE9F04791460E4680460446002514F879
:102EA000017B2FB1FDF738FE0068C05DC007F6D189
:102EB0002B2F02D02D2F1ED0641E4A4631462046AD
:102EC00001F070FA26B13268A24201D1C6F8008042
:102ED0004FF002046A0518D50023D0EB030563EB1D
:102EE00001025D1B934109DB0023D0EB030063EB80
:102EF0000101BDE8F08745F48065DEE7FDF71CFEC3
:102F0000046000204FF00041F3E7021E71F100025F
:102F1000EFDAFDF711FE04604FF0FF304108E8E7FB
:102F20002DE9F05F93460F46804604460026FDF7E4
:102F300003FED0F80090824614F8015B2DB1FDF736
:102F4000EBFD0068405DC007F6D12B2D02D02D2D82
:102F50001FD0641E0021CAF800105A463946204688
:102F600001F020FA024627B13868A04201D1C7F823
:102F70000080DAF8000002280ED0CAF80090700530
:102F80000AD500200346D2EB000063EB0101BDE847
:102F9000F09F46F48066DDE71046F8E72DE9FF4F25
:102FA0004FF000089A461446C146464683B0D2E91F
:102FB00001B7CDF80080CDF8048091690498884766
:102FC000109905465AEA010005D009E0A169049864
:102FD000761C88470546216A284688470028F5D18F
:102FE000681C03D05FEACB7005D02AE04FF0FF30B9
:102FF00007B0BDE8F08F2068011D2160D0F8008087
:103000001FE002A86A46E9B200F03BFB411C07D072
:10301000801C09D04FF000095FEACB7007D00AE0AE
:10302000E169049888473EE04FF0010904E0BDF8EB
:10303000081028F8021B7F1EA1690498761C884797
:103040000546002F1ADD681C18D0BAF1000F0DD00C
:10305000E81705EBD060421120F01F005AF822104B
:103060002A1A012090400142CBD107E01098002895
:10307000C7D12846216A88470028C2D0E169049850
:103080008847B9F1000F0ED1109830B9002E04DD39
:103090005FEACB7001D1A8F80000A068B84202DD59
:1030A000109818B117B16FF00100A1E730469FE703
:1030B0002DE9FF4F4FF000089B461446454683B06C
:1030C000D2E90196CDF80080CDF804809169DDF851
:1030D00048A00498884707465BEA0A0005D009E043
:1030E000A16904986D1C88470746216A38468847BD
:1030F0000028F5D1781C03D05FEAC97005D01BE029
:103100004FF0FF3007B0BDE8F08F2068011D21604F
:10311000D0F8008010E05FEAC97007D16A464046E7
:10312000B9B2FEF7CAFA411C31D08044A1696D1CC6
:103130000498761E88470746002E14DD781C12D0AE
:10314000BBF1000007D03B46DDE9101201F08BF91E
:103150000028E0D107E0BAF1000FDCD13846216A3F
:1031600088470028D7D0E16904988847BAF1000F52
:1031700006D1002D04DD5FEAC97001D188F8000096
:10318000A068B04203DDBAF1000F03D016B16FF0B2
:103190000100B7E72846B5E72DE9FF5F9B461446D7
:1031A00000273D469169D2E90196DDF840A00198DB
:1031B000884780465BEA0A0005D009E0A1690198CA
:1031C0006D1C88478046216A404688470028F5D113
:1031D000B8F1FF3F03D05FEAC97005D014E04FF0AB
:1031E000FF3004B0BDE8F09F2068011D2160076832
:1031F0000AE05FEAC97001D127F8028BA1696D1C52
:103200000198761E88478046002E15DDB8F1FF3FF5
:1032100012D0BBF1000007D04346DDE90E1201F0E9
:1032200022F90028E5D107E0BAF1000FE1D14046CC
:10323000216A88470028DCD0E16901988847BAF103
:10324000000F05D1002D03DD5FEAC97000D1388081
:10325000A068B04203DDBAF1000F03D016B16FF0E1
:103260000100BEE72846BCE770B50D46014614468E
:10327000D36850692A461DF08BFB002807DA411CF1
:1032800007D0E16820F0004041F48041E160281A55
:1032900070BD2046FDF730FF4FF0FF3070BDC168B4
:1032A0000022026021F4805141F0400111F4C06F0E
:1032B000C16001D08260704702694168891AC269A1
:1032C000891A816070472DE9F05F04468946C0681D
:1032D00040F4800010F4C06FE06008D0204601F098
:1032E00043F92068002802DD401E206033E0E068DA
:1032F000010312D520F40020E060810606D4E26AC2
:1033000061688A4200D80A46511A216040F40010D0
:10331000E06094F82500BDE8F09F20F40010E06024
:10332000800602D52046FDF74AFFE06842F281019F
:103330004FF0FF3A0140012903D02046FDF7DCFEA3
:10334000B0E02168002600290ADAC94340F4805021
:103350002160C4E902606068411C61600078DAE7BE
:1033600044F2400108420CD020F4A04040F040005C
:103370002660E06021696068401AE169401AA06037
:1033800090E0216991B9C00310D4E069FDF71BFA00
:103390002061B0B1E06840F4006010F4407FE0606C
:1033A00002D140F48070E06020696060E068D4F889
:1033B00014B0C1061AD5C0030ED52046FDF7DCFEB9
:1033C00014E004F1240020610120E061E06820F4B1
:1033D000407040F48060E6E721696068401AA169A6
:1033E000014458461DF0E8FA0028A6DBE068C00357
:1033F0002BD56168E06A884200D808462169451AE1
:10340000E069471B1CD02046D4F81880FDF7B4FEB5
:1034100008EB05015846C4F818801DF0CDFA0028C5
:103420008BDBE068B9F1000F40F40030E06002D0BF
:10343000A0692844A061E1692069C91B45180DE015
:103440002046FDF799FEE769F5E725696168D4E94B
:103450000607491BE56208446560A061E068B9F1B0
:10346000000F20F0100040F48050C4E9026005D045
:103470002069E06260606FF001004CE72246394647
:103480002846FFF7F1FE411C0CD02918E16258B123
:10349000401E2060681C6060E06840F40030E0601E
:1034A000287838E7504636E765602046FFF7F7FE94
:1034B000F8E770B5C468A50713D0650211D4B2F55A
:1034C000807F09D0B2F5007F06D0B2F5806F08D1B9
:1034D000012300F1240106E05D1E6FF07F46B54236
:1034E00001D3012070BD0161C361416024F47061AA
:1034F0001143C160002070BD2DE9FF5F8B461C4663
:103500008246029D05FB0BF5E5B1D4F808805746CD
:103510004FF00009B8F1000044DCE069A84227D26E
:10352000B9F1000F24D0224629463846A669FDF796
:10353000EDFD58B1C4F80880A069801B3844A0EBA9
:103540000A0129E0002004B0BDE8F09FE16811F411
:10355000C06F01D0002008E022696068801AE2692B
:10356000101AC903A06001D44042A0600298EAE7A3
:10357000A84201D2012200E0002221463878FDF75E
:103580002BFC411C06D0D4F80880002807DB6D1EF8
:103590007F1C17E0A7EB0A01B1FBFBF0D3E74FF06C
:1035A00001090FE0A842064600D92E4639463246A8
:1035B0006068FDF71DF86068AD1BA8EB0608304495
:1035C00037446060002DA5D1C4F80880CEE7000024
:1035D0002DE9F8439946174680464FF000060C0047
:1035E00002D18846012717A4B9F1000F25D1052182
:1035F0000020AFF3008081461FE014F8011B4A460B
:10360000684600F03EF8761C0546401C0FD0AD1C05
:1036100013D0B8F1000F03D0BDF80010A8F80010C7
:10362000BDF80000002800D03046BDE8F883FDF763
:1036300083FA042101602846F7E77F1EDDD26FF090
:103640000100F2E7000000007CB50C46054622B9F7
:1036500006210020AFF30080024621466846FEF7AF
:103660002CF80446401C07D025B12246694628465E
:10367000FCF7BEFF20467CBDFDF75EFA0421016029
:10368000F8E7F8B516460C460546FDF745FA036817
:1036900093F80101012804D0185D78B101202C8035
:1036A000F8BDD3F803013246214603F20313C718CD
:1036B00068460023B84700992980F8BD4FF0FF30D5
:1036C000F8BD10B50446AFF300802046BDE81040B9
:1036D000FCF7E5BE10B500F069FFBDE8104000F052
:1036E0005FBF10B500F07AFFBDE8104000F058BF92
:1036F00010B500F08DFFBDE8104000F051BFB2F1F1
:1037000020030AD5C2F1200301FA02F120FA03F3E3
:1037100041EA030100FA02F0704700FA03F14FF0AA
:103720000000704730B5B0F10A0271F100034FEAB2
:10373000900E4EEA817EB0EB0E0061EB91014FEAF4
:10374000101E4EEA017E10EB0E0041EB11114FEA04
:10375000102E4EEA016E10EB0E0041EB11214FEAE4
:10376000104E4EEA014E10EB0E0041EB1141401895
:1037700041F100014FEAD00040EA41704FEAD10127
:103780004FEA810444EA907410EB800544EB010495
:103790006D1944EB0404521BA3414FF0000348BFD2
:1037A0000A3200D530BD401C41F1000130BD10B5DA
:1037B0000446FDF7B1F90068005D00F0010010BD9E
:1037C0002DE9F0470D4699469246044600F124083B
:1037D0000168880604D5E06921F01001216000E04D
:1037E0000120A84201DD471B00E00027A1697A19EA
:1037F00002EB0900081AA0612078C00602D4204616
:10380000FEF7C2FB002608E0D4E901211AF8060001
:103810009047206A401C761C20624E45F4DB2078DD
:10382000C0060AD52046FEF7AFFB06E0D4E9012129
:1038300030209047206A401C2062381EA7F1010703
:10384000F4DC07E0D4E9012118F805009047206A6C
:10385000401C2062281EA5F10105F3DC2046FEF77E
:10386000A9FB2078000602D50220BDE8F0870120E0
:10387000FBE72DE9FF4F0C461E464FF0FF378BB09C
:10388000D2E90001DDF860800A908A46C1F30A554A
:1038900005B93D46002108464FF00000BAF1000F7F
:1038A00000F4400005DA00EB80004FF4400101EA2B
:1038B00050004FEA9059B9F1010F00DDB9460A985E
:1038C00050EA4A000ED044F61050A5F2FF354543A9
:1038D0002F14B8F1000F1ED07542291E1EDDC9F14C
:1038E00000021CE0B8F1010F4FF0000001D03021C0
:1038F00003E0F24305E02154401CB042FBDB3046BC
:103900000022002121540B99C1F80880C1E9002050
:103910000FB0BDE8F08FBD1B6D1CDEE74A4600DA34
:10392000694206A800F0AEFD06AB93E8070003ABC2
:1039300083E8070050460A991FF0ACFE8DE80700A7
:10394000A0F500501F3800900398002D0ADD42F2C8
:103950001F014A460844002303A90390684620F04B
:1039600057F909E0A0F500504A461F38002303A983
:103970000390684620F076F98DE807000004000CFB
:1039800003D04FF0FF30410800E01046B8F1000FBF
:1039900003D00022009215461EE0751E05D4FFF7E5
:1039A000C1FE303262556D1EF9D5B346012208437F
:1039B00002D000227F1C04E02078302801D10022B0
:1039C0007F1E002A099784D01DE0112D07DAFFF72A
:1039D000A9FE303262556D1C50EA0102F5D1084350
:1039E00002D00098C8B10EE00021681E05E0235CFB
:1039F000625C63542254401E491C8142F7DBAB4693
:103A0000A81B401E0990002004F80B000B98099A8F
:103A1000C0F80880C0E9002B7AE711264FF00008B3
:103A200057E72DE9F04F88460446D21D22F00701E2
:103A300091B0D1E90001CDE90A0120F071FA024606
:103A40000B98C00F01D02D2007E02068810701D519
:103A50002B2002E0202101EAC000032A099001D0B6
:103A6000072A05DB03464146204600F0F9FD0BE13D
:103A70002078800601D5E06900E00620B8F1650FE6
:103A8000814606D0B8F1660F18D0B8F1670F70D133
:103A900031E00020B9F1110F009001DB112301E0AA
:103AA00009F101030AAA01A90CA8FFF7E2FEDDE96A
:103AB0000C70002609F10105834647E001204B46C2
:103AC00000904FF000470AAA01A90CA8FFF7D1FE09
:103AD000DDE90DB00C995D46002610B909F1010031
:103AE0000D18B9EB050003D4C0F1FF3609F101054B
:103AF000A5EB09002BE0B9F1010F01DA4FF0010944
:103B00000020B9F1110F0090484601DD112300E0BB
:103B100003460AAA01A90CA8FFF7ABFEDDE90C7069
:103B20004D4600268346207800070AD4AB4500DACC
:103B30005D4601A8012D04DD411911F8011C302951
:103B400007D04F4502DA17F1040F04DA012082464C
:103B50000FE06D1EEEE7002F02DCED1B3E4403E09C
:103B6000781CA84200DD7D1CB81B00F1010A4FF053
:103B700000472078000703D4AA4501DB4FF0FF3A45
:103B80000021B7F1004F0DF143088DF8431024D008
:103B900002202B23002F01DA7F422D230A21021E4F
:103BA000A0F1010000DC5FB197FBF1FC97FBF1F2A3
:103BB00001FB1C7C17460CF1300C08F801CDEEE738
:103BC000A8F1010003702188090501D5452100E015
:103BD0006521A0F1010800F8011C09980FA9A1EBCB
:103BE0000807FF1D00B10120411901EBEA70A1692E
:103BF0003844081A401EA0612078C00602D420462E
:103C0000FEF7C2F9099828B1D4E901219047206A4A
:103C1000401C20622078C00622D52046FEF7B4F969
:103C20001EE0002E04DBB34502DD01A8805D00E04C
:103C30003020D4E901219047206A401C2062761C84
:103C4000AAF101005FEA000A0AD1FEF713F9C06881
:103C50000168405CD4E901219047206A401C206241
:103C6000281EA5F10105DCDC07E0D4E9012118F8E4
:103C7000010B9047206A401C2062381EA7F1010703
:103C8000F3DC2046FEF796F9032011B041E6000070
:103C90002DE9F04F04460D46D21D22F0070089B0F1
:103CA000D0E900974846394620F03AF90246F80F25
:103CB00001D02D2307E02068810701D52B2302E0E6
:103CC000202101EAC0038DF820300BB1012000E073
:103CD0000020032A824601D0072A04DB2946204619
:103CE00000F0BEFC3FE12078800601D40D2500E005
:103CF000E569C7F30A560D2D49DA00214FEA175B33
:103D000008464FF00000002F00F4400007DA00EBF7
:103D100080004FF4400100EBD07001EA6000811593
:103D2000012901DD4FF0FF3100224FEA850CBCF183
:103D3000180F06D31346ACF118004FF08052C24062
:103D400003E04FF4801323FA0CF30CF10C0CBCF1DC
:103D5000200F04D3ACF1200C09FA0CF001E007FAB3
:103D60000CF000294FF0004801DD18B90FE00ED12A
:103D700040450CD319EB02095F4121B9404502D1FE
:103D80009F4329EA0209BBEB175F00D0761C20880D
:103D9000000502D57B48784402E07A487844193817
:103DA00008AA302302F80A30037C0AF10101002E30
:103DB0000AF1020A53546A4602DC4FF0300101E076
:103DC0004FF031014FF001088DF8001002D0A6F23B
:103DD000FF3603E059EA470100D06B4E002D02DCAC
:103DE0002178090704D54FF002082E218DF8011023
:103DF000C44600210BE0C7F303433F01C35C491CE9
:103E00006D1E02F80830052908F1010801DA002DBD
:103E1000F1DC00210CE000EB1973491C1B786D1ECE
:103E2000082902F808304FEA091908F1010801DAF7
:103E3000002DF0DC21688B0602D516E0A8F1010800
:103E4000E04505DD02EB080313F8013C302BF5D00B
:103E5000B8F1000F09DD02EB080313F8013C2E2B2B
:103E600003D1090701D4A8F10108002D05DD3E2189
:103E700002F808106D1E08F10108407C002E02F8BF
:103E8000080008F1010804DA2D20764202F8080043
:103E900002E02B2002F808000A214FF47A708642D3
:103EA00008F101080BDB96FBF0F3303302F8083021
:103EB00096FBF0F308F1010800FB136601E0642EA5
:103EC0000CDB642096FBF0F3303302F8083096FBED
:103ED000F0F308F1010800FB136601E00A2E06DB8F
:103EE00096FBF1F0303002F8080008F1010896FB6B
:103EF000F1F001FB1060303002F80800A16908F110
:103F0000010808EB050202EB0A00081AA0612078FC
:103F1000C00602D42046FEF737F8216A08AE01EB4E
:103F20000A00206204E0D4E9012116F8010B904751
:103F3000BAF1010AF7D22078C00602D52046FEF772
:103F400023F86E4609E016F8010B3E280FD0D4E99D
:103F500001219047206A401C2062B8F10108F2D28A
:103F60002046FEF727F809B00320BDE8F08F206A4D
:103F70002844206203E0D4E90121302090476D1EDF
:103F8000EBD3F8E79A15020002FCFFFF0A6802F87B
:103F9000010B0A60704710B5436913B1AFF300809D
:103FA00001E0FEF72AF8012010BD127800F124018B
:103FB0000A7000224A700122EDE711684FF0FF32CB
:103FC000E9E70000074B70B50D467B44FEF793F818
:103FD0000446284600F0AEFD10B14FF0FF3070BD32
:103FE000204670BD030A020010B5436913B1AFF358
:103FF000008001E0FEF79AF8012010BD128800F160
:10400000240182840022C2840122EDE711684FF06E
:10401000FF32E9E73A2800D2303820F02002412A66
:1040200001D3A2F13700884201D34FF0FF3070472F
:104030002DE9F34F4FF0000A0C4656468DB0012093
:104040000C9001F10C000B9062690B9801219047D4
:10405000051E2DD0252D2CD0216A8847C0B162695C
:104060000B9801219047216A88470028F7D162699F
:10407000411E0B98904700E0761CA1690D98884777
:10408000216A88470028F7D1E1690D988847DBE766
:10409000A1690D988847A842074601D1761CD3E74D
:1040A000E1690D9888477F1C02D1BAF1000F6FD0EB
:1040B0006BE162690B9800273D46394690472A28F4
:1040C00004D162690B98012190470125DFF8D08265
:1040D00062690B9801219047A0F130010A290AD2A8
:1040E0004745E5DC07EB870100EB4107303FDFD4B4
:1040F00045F01005ECE7E90601D46FF000476C28A5
:104100000AD04C2814D0682815D06A280DD07428FD
:104110001CD07A281AD01DE062690B9801219047C3
:104120006C2802D045F0040514E045F002050DE0CE
:1041300045F020050AE062690B9801219047682844
:1041400002D045F0080505E045F4006562690B986A
:1041500001219047C4E9015765283DD019DC582852
:104160007AD00CDC452837D004DC252826D041281D
:104170009ED131E046282FD0472899D12CE05B28EA
:1041800077D0612828D063287CD0642823D15AE0D6
:10419000F6E06F2848D008DC66281DD067281BD0C1
:1041A000692821D06E2816D127E0702845D07328C1
:1041B00068D0752847D078280DD14DE0A1690D98B9
:1041C0008847252805463FF469AFE1690D9888477F
:1041D0006D1C3FF46AAFD8E00D9923466A466FF034
:1041E000010021F049F8C5E045F0400023464FF0BA
:1041F00000026060A80736D43EE0E8077FF447AFCE
:104200002068011D21600068290501D506701BE7A3
:10421000290701D5068017E7A90703D5F117C0E9DB
:10422000006111E706600FE745F0400023464FF0BC
:1042300008026060A80716D41EE040F60E0125EAC9
:104240000100606016E045F0400023464FF00A028E
:104250006060A80707D40FE045F040006060A80741
:1042600008D5234610220D996FF00100FEF740F9A2
:1042700080E007E0102223460D996FF00100FEF761
:10428000E2F977E04FF0000963284F46C8464B46F5
:10429000CB4602D05B2806D038E0E80601D40120E6
:1042A000A060012732E06269D4F80CB00B980121BC
:1042B00090475E2807D14FF0010949466269D4F85A
:1042C0000CB00B989047216939B900210A4603AB1D
:1042D00043F82120491C0829FADBD8B3216949B3E6
:1042E00008F1010862690B98012190475D28F4D11B
:1042F000B9F1000F09D0002003A951F82020D243C2
:1043000041F82020401C0828F7DB03AB2069002877
:1043100020794FEA40701ED05B462246CDF80080DF
:10432000CDE901970D9900286FF0010020DAFEF722
:1043300033FF1FE0C11703AA00EBD1614B1121F03D
:104340001F0102EB8302411A1368012088400343D6
:104350001360C7E719E00D99224600286FF00100AD
:10436000009702DAFEF71AFE04E0FEF712FA01E007
:10437000FEF79EFE00280ADA401C06D10C9820B1F8
:104380004FF0FF300FB0BDE8F08F5046FAE7E90775
:1043900001D10AF1010A064400200C9054E6000005
:1043A000CCCCCC0C2DE9F74F4FF000091546CA468E
:1043B000009C14F8010B302801D0ADB115E014F8C1
:1043C000010B4FF00109782803D0582801D04DB1D6
:1043D0000BE00DB1102D08D14FF0000914F8010BBE
:1043E000102502E0082500E00A2500274FEAE57BBA
:1043F0003E46B84616E0A5FB07234FF0010905FB32
:1044000008000BFB0731030C05FB0616D7181FFA33
:1044100080F846F10006381E76F5803000D3CA4693
:1044200014F8010B2946FFF7F5FD0028E3DA01989F
:1044300038B1B9F1000F01D0641E00E0009C019872
:104440000460BAF1000F08D0FCF776FB022101608E
:10445000C81E014603B0BDE8F08F310441EA1741A0
:1044600048EA0740F6E710B508E030F8024B9C42F6
:1044700004D10AB1002010BD012010BD491EF4D2A4
:10448000104610BD2DE9F047814616468AB03548E2
:1044900078440DC88DE80D0032487844801C03AC88
:1044A0000DC884E80D0041F69B300844372190FB8D
:1044B000F1F290FBF1F5A5F1800501FB12041B3C24
:1044C00002D56442012000E00020DFF898A0804679
:1044D0000027FA44AAF1BE0A0EE0E0070AD03246ED
:1044E000684607EB470101230AEB81011FF0BAFB85
:1044F0008DE8070064107F1C002CEED1194F7F441B
:10450000AE3F19E0E80715D007EB04100DF1180ACB
:1045100090E80E008AE80E00C068F04201D19819B8
:1045200008903246012306A903A81FF09BFB03ABAA
:1045300083E807006D10641C002DE3D14FF00103E8
:1045400032466946B8F1000F03A802D01FF060FBA5
:1045500001E01FF087FBC9E90001C9F808200AB093
:10456000BDE8F087300F020070B5054640F2022624
:104570000A4C0FE094F85000C00708D0AC4206D0B7
:10458000E06836EA000002D12046FCF7D5F9206D3C
:1045900020F00104002CEDD170BD0000E0010024EA
:1045A000002801D01CF0E0B97047000010B50021D0
:1045B00002A000F0C3FA012010BD0000534947419A
:1045C0004252543A2041626E6F726D616C20746584
:1045D000726D696E6174696F6E00000010B50146FE
:1045E00002A000F0ABFA012010BD00005349475271
:1045F000545245443A2052656469726563743A20A6
:1046000063616E2774206F70656E3A2000000000B1
:1046100010B5012805D0002103A000F08FFA012079
:1046200010BD09A1F8E7000053494752544D454DCC
:104630003A204F7574206F662068656170206D6543
:104640006D6F7279000000003A2048656170206D3E
:10465000656D6F727920636F727275707465640036
:104660002DE9F0411F46044603260168072A01F49C
:10467000006004DB08B116A505E016A503E008B14B
:1046800015A500E015A521F010002060A069C01E4E
:10469000A0610FB1401EA0612046FDF775FC4FB12F
:1046A000D4E9012138469047206A401C2062C01C92
:1046B000206206E0206AFAE7D4E9012115F8010B2F
:1046C0009047761EF8D22046FDF774FCBDE8F081D5
:1046D0004E414E006E616E00494E4600696E6600A6
:1046E0002DE9FF4F1F464FF03C0987B04FF00042C5
:1046F000DDE9141001F10108DDF858A002EA40508C
:104700000390002005908346054604460490B9694D
:10471000461E08988847AAF1010A0290BAF1000FD4
:104720003BDD02982E2815D01021FFF773FC0028DE
:104730002EDB4FF0010B0599014317D0B9F1000FA3
:104740000BDB4A46C117FEF7DAFF05430C43A9F11C
:10475000040905E0012004900BE008B145F00105D3
:1047600001200590049820B9361D02E0049800B19C
:10477000361FB969089808F101088847BBF1000F96
:10478000AAF1010A0290C9D00999C1F80080C5E7D1
:104790000298702808D0502806D0F96908988847F0
:1047A000BBF1000F14D04FE0002002900120BBF1BC
:1047B000000F049009D0B969089808F101088847EA
:1047C000AAF10109B9F1000F07DCF96908988847D7
:1047D0006FF001000BB0BDE8F08F2B2804D02D281E
:1047E0000CD14FF0FF300490B969089808F1010826
:1047F0008847A9F10109B9F1000FE6DD411CE4D0B9
:104800000A21FFF707FC0028DFDB029908F1010805
:1048100001EB810100EB41000290B96908988847DB
:104820000A21FFF7F7FB099AA9F10109B9F1000F75
:10483000C2F8008001DD0028E7DAF96908988847A6
:104840000499029800FB016655EA040004D004F0C4
:104850004041090002D006E0039898E0A40044EA31
:104860009574AD00B61E04F00041080002D16D1928
:104870006441761E159810F0240F03D04FF00B09F9
:104880005C4803E04FF028096FF07D0082465645F2
:1048900007DAAAEB06018944B9F1410F01DD4FF0B7
:1048A000410901200021A9F10102FEF728FF02467B
:1048B00028400B462140084301D0012100E000219F
:1048C000501E029143F1FF3128402140084301D09E
:1048D000012000E000200299834651EA0B014FD0ED
:1048E000002108464FF00000039900F4400039B160
:1048F00000EB80004FF4400100EBD07001EA600053
:104900008015012802DD4FF0FF3000E013D0401C7D
:1049100036D0029860B3BBF1000F0CD14A4601209B
:104920000021FEF7ECFE28402140084301D0012081
:1049300000E00020E0B101204A460021FEF7DFFE42
:10494000034640190A4661412D1A8C4111D3B9F131
:10495000400F09DD159810F0240F02D0AAF134069B
:1049600003E0AAF1170600E0761C00254FF0004492
:1049700006E05B1E42F1FF3220EA030521EA020451
:10498000CAF10100B04206DA1B49039808430190BE
:10499000002000900EE0039AC4F3D321E80A0A43F2
:1049A000164940EA44500A433146CDE900026846C0
:1049B0001FF0F0FF159810F0240F0BD01598C007CA
:1049C00015D13868DDE90012031D3B600068C0E9BD
:1049D00000120CE002A869461FF028FF1598C007D6
:1049E00005D13868029A011D3960006802604046AE
:1049F000F0E6000002FCFFFF0000F07F0000F03F47
:104A00002DE9FF4F92461D4685B04FF00041DDE98C
:104A1000124BDDE914727F1E01EA4B50414940F010
:104A2000FF4940EA0108002122F0200049280491B2
:104A300002D04E2828D04CE03BA0012607C88DE8C4
:104A40000700A9690698641C88477F1E014606D4A2
:104A50001DF8060018B121F0200181420BD0E96950
:104A600006988847032E34D0082E32D06FF001000C
:104A700009B0BDE8F08F761C032E01D0082EE0D1DE
:104A8000601CCAF80000DCE7A9690698641C884726
:104A90007F1E2AD420F02000412826D1A96906983B
:104AA000641C88477F1E20D420F020004E281CD193
:104AB000A9690698641C88477F1E48F4002849F4B9
:104AC0008009CAF8004001D4282806D0E969069870
:104AD00088475FEACB7012D022E0A9690698641C6F
:104AE00088477F1E01D4002803DAE96906988847C1
:104AF000BCE72928F1D1641CCAF80040E9E71BF0A3
:104B0000240F07D028680499031D2B600068C0E9B2
:104B1000001805E02868021D2A600068C0F80090AF
:104B20002046A5E70000F07F494E46494E495459BA
:104B300000000000007B00F08000704770B5054663
:104B40000C460A2000E06D1C1BF04AFF35B12878A6
:104B50000028F8D102E0641C1BF042FF14B1207859
:104B60000028F8D1BDE870400A201BF039BF0000D2
:104B70002DE9F04383B00AF0D3F80CF0C9FC43F6FA
:104B80003831C2F200410CF0FFFC40F23C3442F6F6
:104B9000FC20C2F2004442F62C61C2F20040C2F294
:104BA0000041E06342F61C50216442F60C4140F2A1
:104BB0009968C2F20040C2F20041C0F60108C4E99F
:104BC000110100206168CBF68070C4F8E8004FF056
:104BD0007E50C4F8E00004F1080018234FF48072FE
:104BE000CDE90030404623461EF0E6F940F2C446C7
:104BF0000220C2F2004684F8640143F6445043F6B2
:104C00005461C2F20040C2F20041C6F8E40043F62B
:104C10006470C6F8E81044F27401C2F20040C2F2B7
:104C20000041C6E93B01716806F108004FF0280910
:104C30004FF48072CDE9009040463346012584F858
:104C400058511EF0B9F940F298670320C2F20047AC
:104C500086F8300107F108004FF4807279683B460E
:104C6000CDE90090404686F8FC50FC6187F8205062
:104C70007E6287F828501EF09FF987F8295003B00C
:104C8000BDE8F08300000000FEE700000000000027
:104C90000020704700000000002070470000000066
:104CA00010B542F66C7441F2F021C2F20044C2F237
:104CB00000410022204608F01FFA40F6F02120466D
:104CC000C2F2004108F008FA002010BD0000000008
:104CD000B0B50968044609F0CFFD42F66C7521466F
:104CE000C2F20045284608F0F7F9284608F0D0F946
:104CF0000020B0BD00000000002070470000000050
:104D000043F2C020C2F2004000F056BE0000000096
:104D100043F24820C2F2004000F04EBE0000000006
:104D200043F23830C2F2004000F046BE00000000FE
:104D300043F2B030C2F2004000F03EBE000000007E
:104D400040F20F42D0F800C0C4F20202944510DCD9
:104D50006F22C4F20202944520DC3F22C4F2020218
:104D6000944536DC1022C4F20202944554D0282225
:104D70004EE040F26F42C4F2020294451ADC40F267
:104D80003F42C4F2020294452ADC40F21042C4F2CF
:104D90000202944540D040F2284239E09F22C4F2FA
:104DA0000202944525DC7022C4F20202944533D0FD
:104DB00088222DE040F29F42C4F2020294451FDC9B
:104DC00040F27042C4F20202944525D040F288427B
:104DD0001EE04022C4F2020294451DD0582217E082
:104DE00040F24042C4F20202944515D040F25842CB
:104DF0000EE0A022C4F2020294450DD0B82207E0D2
:104E000040F2B842C4F20202944505D040F2A042FA
:104E1000C4F20202944517D10CF0F8024AF6AB2313
:104E2000103ACAF6AA23A2FB033109A35F2AC1F3F1
:104E300002115B5C40F2FF312CEA0101C36588BFBF
:104E400004318165084670472CF0FF01F9E700BF87
:104E5000000610160006101670B540F26F44D0F828
:104E600000C0C4F20204D0F858E0A44519DC9F2524
:104E7000C4F20205AC4531DC5725C4F20205AC454D
:104E800056DC1025C4F20205AC4500F092802825BE
:104E9000C4F20205AC4500F08C804025C4F2020546
:104EA00084E045F22F45C5F60205AC452BDC40F207
:104EB000B745C4F20205AC4548DC40F27045C4F287
:104EC0000205AC4575D040F28845C4F20205AC45F8
:104ED0006FD040F2A045C4F2020567E040F22745DA
:104EE000C4F20205AC4540DCA025C4F20205AC4585
:104EF0005FD0B825C4F20205AC455AD040F2104547
:104F0000C4F2020552E045F26B45C5F60205AC4518
:104F10003CDC45F23045C5F60205AC4549D045F2CA
:104F20004445C5F60205AC4543D045F258453BE043
:104F30005825C4F20205AC453BD07025C4F20205E9
:104F4000AC4536D08825C4F202052FE040F2B845C2
:104F5000C4F20205AC452CD045F20845C5F6020561
:104F6000AC4526D045F21C451EE040F22845C4F26F
:104F70000205AC451DD040F24045C4F20205AC45E7
:104F800017D040F25845C4F202050FE045F26C45D7
:104F9000C5F60205AC450CD045F29445C5F60205B0
:104FA000AC4506D045F28045C5F60205AC4540F05B
:104FB000CC80456EC66E002E866E6E601CBFD0E93A
:104FC0001C566E60A44515DC9F24C4F20204A4455F
:104FD0002BDC5724C4F20204A4454EDC1024C4F296
:104FE0000204A44576D02824C4F20204A44571D05A
:104FF00040246BE045F22F44C5F60204A44527DCAB
:1050000040F2B744C4F20204A44542DC40F27044CA
:10501000C4F20204A4455DD040F28844C4F2020404
:10502000A44557D040F2A04450E040F22744C4F2D7
:105030000204A4453CDCA024C4F20204A44549D0E7
:10504000B824C4F20204A44544D040F210443DE028
:1050500045F26B44C5F60204A44553DC45F23044E6
:10506000C5F60204A4455FD045F24444C5F60204E7
:10507000A44559D045F2584452E05824C4F20204E1
:10508000A44527D07024C4F20204A44522D0882469
:105090001CE040F2B844C4F20204A4451AD045F220
:1050A0000844C5F60204A4453ED045F21C4437E04E
:1050B00040F22844C4F20204A4450BD040F240441C
:1050C000C4F20204A44505D040F25844C4F20204DC
:1050D000A4453AD18468C06D00F01F003F2505FA51
:1050E00000F0CEF80800DCF80000402C20F480200E
:1050F000CCF80000CCF8043023D1CCF80820CCF850
:105100000C1070BD45F26C44C5F60204A4450BD0EA
:1051100045F28044C5F60204A44505D045F2944406
:10512000C5F60204A44510D1C46D012504F01F0486
:10513000806805FA04F4CEF804404028CCF8043026
:10514000DBD0CCF80810CCF80C2070BD00000000BB
:1051500070470000000000004FF4807002F0BCBCFB
:10516000EFF3108072B600BFFEE700000000000001
:1051700044F60C00C5F60200016841F0020101602E
:1051800050F8081C8904FBD570470000000000009F
:1051900043F22840C2F2004001F0D2BF00000000FC
:1051A00043F2C840C2F2004001F0CABF0000000054
:1051B00043F26850C2F2004001F0C2BF000000009C
:1051C000F0B5D1E900C4D1F808E00D692CB14EEA80
:1051D0000C04254345F0804C03E045EA8C4444EA46
:1051E0000E0C856ED0F88470D1E907466B438D694B
:1051F00044EA0660D1F814E0CC68054307EB83006D
:1052000045EA0E0647F823C046EA04434360CB68EC
:10521000002B08BFF0BD47F2DC1C08300132002330
:10522000C0F6020CD71857F8017CC750CF6804337A
:105230001CF80770BB42F5D3F0BD00000000000071
:105240002DE9F041044602F027FD14B3054694F819
:105250003500022820D140F20F472668C4F2020729
:1052600040F26F48BE426FF00E00C4F2020817DC35
:105270006F21C4F202018E4223DC3F21C4F20201FD
:105280008E4239DC1021C4F202018E4258D028210E
:1052900051E00120BDE8F08180206065012037E207
:1052A00046451ADC40F23F41C4F202018E422ADC3C
:1052B00040F21041C4F202018E4241D040F2284136
:1052C00039E09F21C4F202018E4225DC7021C4F234
:1052D00002018E4234D088212DE040F29F41C4F279
:1052E00002018E421FDC40F27041C4F202018E4284
:1052F00026D040F288411EE04021C4F202018E42D5
:105300001ED0582117E040F24041C4F202018E4203
:1053100016D040F258410EE0A021C4F202018E42A4
:105320000ED0B82107E040F2B841C4F202018E422B
:1053300006D040F2A041C4F202018E42314607D1AC
:105340003146306820F01E0041F8140B6FF08000E9
:105350000A68464500EA0200086019DC9F20C4F292
:105360000200864231DC5720C4F20200864256DC3D
:105370001020C4F20200864200F091802820C4F27E
:105380000200864200F08B804020C4F2020084E0DC
:1053900045F22F40C5F6020086422BDC40F2B740B2
:1053A000C4F20200864248DC40F27040C4F20200BF
:1053B000864274D040F28840C4F2020086426ED029
:1053C00040F2A040C4F2020067E040F22740C4F27D
:1053D0000200864240DCA020C4F2020086425ED079
:1053E000B820C4F20200864259D040F21040C4F204
:1053F000020052E045F26B40C5F6020086423CDCFA
:1054000045F23040C5F60200864248D045F244409D
:10541000C5F60200864242D045F258403BE0582093
:10542000C4F2020086423AD07020C4F202008642E2
:1054300035D08820C4F202002FE040F2B840C4F218
:10544000020086422BD045F20840C5F60200864293
:1054500025D045F21C401EE040F22840C4F2020074
:1054600086421CD040F24040C4F20200864216D070
:1054700040F25840C4F202000FE045F26C40C5F61D
:10548000020086420BD045F29440C5F602008642E7
:1054900005D045F28040C5F60200864204D1206E58
:1054A000016821F480710160306820F001003060F3
:1054B0003068C0070BD002F0EFFB401B0628F7D383
:1054C00020206065032084F83500012020E1206859
:1054D0000821B8424FF03F0210DC6F23C4F20203F0
:1054E00098421CDC3F23C4F20203984232DC1023B2
:1054F000C4F20203984251D028234AE040451ADC06
:1055000040F23F43C4F2020398422ADC40F21043C7
:10551000C4F20203984241D040F2284339E09F236D
:10552000C4F20203984225DC7023C4F202039842BD
:1055300034D088232DE040F29F43C4F20203984206
:105540001FDC40F27043C4F20203984226D040F2BE
:1055500088431EE04023C4F2020398421ED0582321
:1055600017E040F24043C4F20203984216D040F2E2
:1055700058430EE0A023C4F2020398420ED0B82391
:1055800007E040F2A043C4F20203984206D040F282
:10559000B843C4F20203984240F0BF80D4E9163702
:1055A00007F01F07404502FA07F25A5019DC9F2105
:1055B000C4F20201884231DC5721C4F20201884260
:1055C00056DC1021C4F20201884200F091802821AB
:1055D000C4F20201884200F08B804021C4F2020133
:1055E00084E045F22F41C5F6020188422BDC40F2EF
:1055F000B741C4F20201884248DC40F27041C4F273
:105600000201884274D040F28841C4F2020188420B
:105610006ED040F2A041C4F2020167E040F227419F
:10562000C4F20201884240DCA021C4F20201884297
:105630005ED0B821C4F20201884259D040F2104134
:10564000C4F2020152E045F26B41C5F60201884204
:105650003CDC45F23041C5F60201884248D045F2B3
:105660004441C5F60201884242D045F258413BE030
:105670005821C4F2020188423AD07021C4F20201DA
:10568000884235D08821C4F202012FE040F2B841AF
:10569000C4F2020188422BD045F20841C5F602014E
:1056A000884225D045F21C411EE040F22841C4F258
:1056B000020188421CD040F24041C4F202018842FB
:1056C00016D040F25841C4F202010FE045F26C419D
:1056D000C5F6020188420BD045F29441C5F602019D
:1056E000884205D045F28041C5F6020188420BD1BF
:1056F000616EA26EE06E4A6030B1016821F4807183
:105700000160D4E91C014160012084F835000020CB
:10571000002184F83410BDE8F081042101223DE726
:10572000F0B190F83510022918D180B540F20F423F
:105730000168C4F20202914214DC6F23C4F2020336
:10574000994224DC3F23C4F2020399423ADC10233D
:10575000C4F20203994258D0282352E080214165C7
:105760000120704740F26F43C4F2020399421ADCF1
:1057700040F23F43C4F2020399422ADC40F2104354
:10578000C4F20203994240D040F2284339E09F23FB
:10579000C4F20203994225DC7023C4F20203994249
:1057A00033D088232DE040F29F43C4F20203994294
:1057B0001FDC40F27043C4F20203994225D040F24C
:1057C00088431EE04023C4F2020399421DD05823AF
:1057D00017E040F24043C4F20203994215D040F270
:1057E00058430EE0A023C4F2020399420DD0B8231F
:1057F00007E040F2B843C4F20203994205D040F2F8
:10580000A043C4F2020399426ED191424FF00402C8
:1058100080F8352010DC6F20C4F20200814220DCC9
:105820003F20C4F20200814236DC1020C4F20200A4
:10583000814253D028204EE040F26F40C4F2020073
:1058400081421ADC40F23F40C4F2020081422ADC6D
:1058500040F21040C4F2020081423FD040F22840A2
:1058600039E09F20C4F20200814225DC7020C4F29E
:105870000200814232D088202DE040F29F40C4F2E5
:10588000020081421FDC40F27040C4F202008142FB
:1058900024D040F288401EE04020C4F20200814241
:1058A0001CD0582017E040F24040C4F20200814270
:1058B00014D040F258400EE0A020C4F20200814211
:1058C0000CD0B82007E040F2B840C4F20200814298
:1058D00004D040F2A040C4F202008142086820F0E7
:1058E00001000860002080BD0A6822F00E020A60F4
:1058F00045F25742C5F6020291420A6822F00102BF
:105900000A600EDC45F22F42C5F60202914217DC16
:1059100045F20842C5F60202914226D045F21C42E9
:105920001FE045F27F42C5F60202914211DC45F2CA
:105930005842C5F60202914217D045F26C4210E07F
:1059400045F23042C5F6020291420ED045F2444281
:1059500007E045F29442C5F60202914205D045F2B5
:105960008042C5F6020291421AD1D0E9181CD0E952
:1059700016E30A6822F480720A6003F01F01012214
:1059800002FA01F1CEF80410816ECCF80410C16E59
:1059900031B10A6822F480720A60D0E91C124A60B0
:1059A000012180F83510016D0022002980F8342093
:1059B00098D08847002080BD2DE9F04381B00021B8
:1059C000009140F2340148F2B513C2F20041C1F631
:1059D0004E33856D40F26F490A680168C4F20209CE
:1059E0002E68A2FB032849452B6815DC9F22C4F2D0
:1059F000020291422BDC5722C4F2020291424FDC98
:105A00001022C4F20202914278D02822C4F202028B
:105A1000914273D040226CE045F22F42C5F602025B
:105A2000914227DC40F2B742C4F20202914243DCC9
:105A300040F27042C4F2020291425FD040F28842CA
:105A4000C4F20202914259D040F2A04251E040F229
:105A50002742C4F2020291423DDCA022C4F20202BB
:105A600091424BD0B822C4F20202914246D040F299
:105A700010423EE045F26B42C5F60202914275DCEF
:105A800045F23042C5F60202914200F0828045F2B2
:105A90004442C5F6020291427BD045F2584273E07F
:105AA0005822C4F20202914228D07022C4F20202AB
:105AB000914223D088221CE040F2B842C4F2020294
:105AC00091421BD045F20842C5F60202914260D0D5
:105AD00045F21C4258E040F22842C4F202029142D0
