:020000040800F2
:100000003074002481040008798D0008918900086B
:10001000718D000889240008C1B8000800000000A4
:1000200000000000000000000000000041900008F7
:100030005929000800000000918D000879900008FF
:100040009F0400089F0400089F0400089F04000804
:100050009F0400089F0400089F0400089F040008F4
:100060009F0400089F0400089F0400083925000829
:100070009F0400089F0400089F0400089F040008D4
:100080009F0400089F0400089F04000891290008AD
:10009000A12900089F0400089F0400089F0400088D
:1000A0009F0400089F0400089F0400089F040008A4
:1000B0009F0400089F040008719100089F04000835
:1000C0009F0400089F0400089F0400089F04000884
:1000D0009F040008699B00089F0400089F04000813
:1000E0009F0400089F040008000000009F0400080F
:1000F000919100089F0400089F0400089F040008D5
:100100009F0400089F0400089F0400089F04000843
:100110009F0400089F040008819100089F040008C4
:100120009F0400089F0400089F0400089F04000823
:100130009F0400089F0400089F0400089F04000813
:1001400000000000000000000000000000000000AF
:100150009F0400089F0400089F0400089F040008F3
:100160009F0400089F0400089F0400089F040008E3
:100170009F040008818D00089F0400080000000013
:100180009F0400089F0400089F0400089F040008C3
:100190009F0400089F0400089F0400089F040008B3
:1001A0009F0400089F0400089F040008000000004E
:1001B0009F0400089F0400089F0400089F04000893
:1001C0009F0400089F0400080000000000000000D9
:1001D00000000000000000009F0400080000000074
:1001E000000000000000000000000000000000000F
:1001F00000000000000000009F0400089F040008A9
:100200009F0400089F040008000000009F040008ED
:100210009F0400089F0400089F0400089F04000832
:100220009F040008000000009F0400080000000078
:100230009F0400089F040008000000009F040008BD
:100240009F0400089F0400089F0400089F04000802
:100250009F0400089F0400089F0400089F040008F2
:100260009F0400089F0400089F0400089F040008E2
:100270009F0400089F0400089F040008000000007D
:100280009F0400089F0400089F0400089F040008C2
:10029000000000009F0400089F0400080000000008
:1002A000000000009F0400089F0400089F0400084D
:1002B0009F0400089F0400089F040008B12900085B
:1002C0009F0400089F0400089F04000800F002F843
:1002D00000F0C7F814A696E8000CB244B344DA451F
:1002E00001D100F0BEF8BAE80F000FA696E8300082
:1002F000A5EB040504EB0607AAEB0704A7F1010729
:100300004FEA15154FEA3414A4F10104AC4201D3AD
:1003100000F0A7F813F0010F18BFFB1A43F0010318
:1003200000F001F8DBE7184790020100B00201007D
:100330000A4410F8014B14F00F0508BF10F8015BD8
:10034000240908BF10F8014B6D1E05D010F8013BC1
:100350006D1E01F8013BF9D1641E03D0641E01F843
:10036000015BFBD19142E4D370470000704700006D
:100370000023002400250026103A28BF78C1FBD8AE
:10038000520728BF30C148BF0B6070476E2900F08C
:100390003983702900F07D8466290FF03D87652937
:1003A0000FF03A8767290FF0378761290FF03687FA
:1003B00003681B0A28BF41F08001692900F0E6822A
:1003C000642900F0E382752900F0E0826F2900F0D3
:1003D0000B84782900F04984E92900F0A583E429F9
:1003E00000F0A283F52900F09F83EF2900F0088434
:1003F000F82900F048840368DB0928BF41F0800138
:10040000632901F0FB81732901F00082E32901F0E7
:100410000B82F32901F01082002070471FB50FF006
:1004200074FE9DE8030000F07FFD01F0A9FA0400CE
:10043000002000210FF0ACFD401C60600020002176
:100440000FF090FDE06001F05DFA01F099FB00F023
:100450006DF91FBD10B5002001F022FA01F0F9FB83
:1004600010BD01F05FFA1146FFF7D8FF0CF0A8FDB0
:1004700001F05CFB03B4FFF7EDFF03BC01F048FAA9
:100480000A4880470A4880470A480047FEE7FEE7D7
:10049000FEE7FEE7FEE7FEE7FEE7FEE7FEE7FEE734
:1004A00005480649064A074B7047000071290008B5
:1004B00099900008CD020008306E002430740024AA
:1004C000307000243070002453EA020C00F0698080
:1004D0002DE9F04B4FF00006002B1FBFB3FA83F558
:1004E00003FA05F424FA05F65E4012BF1643B2FA89
:1004F00082F502FA05F4C5F120051EBF22FA05FCBB
:1005000044EA0C04203556EA044C4FEA144418BF60
:10051000641C4FF000084FF00009904271EB030C8F
:1005200039D3002919BFB1FA81F701FA07F6B0FAF9
:1005300080F700FA07F6C7F120071EBF20FA07FC74
:1005400046EA0C062037B6FBF4FCA7EB0507103F84
:1005500007F01F0BCBF120062CFA06F60CFA0BFB6A
:1005600044BFB3460026202FA4BF5E464FF0000BC9
:100570005BEA060C08BF4FF0010B19EB0B0948EBC7
:100580000608ABFB027C06FB02CC0BFB03CCC01BBA
:1005900071EB0C01C1E70B46024641464846BDE8F7
:1005A000F08B13B5084318BF4FF0FF300146AFF38F
:1005B0000080BDE81C4070477CB51D4616460C0007
:1005C000009007D04142A14202D32044401E01E0E6
:1005D0004FF0FF30064B7B442A4669460190304677
:1005E00000F029FA002C02D0009A002111707CBD85
:1005F000830400000B460146184600F019BC10B5F4
:10060000431C02E010F8011B71B18107FAD14FF0D1
:10061000013202C88C1A8C4314EAC211F9D0C01AF4
:100620000A0603D0C01E10BDC01A10BD0A0401D0B6
:10063000801E10BD0902FCD0401E10BD032A40F2EE
:10064000308010F0030C00F0158011F8013BBCF174
:10065000020F624498BF11F801CB00F8013B38BF8C
:1006600011F8013BA2F1040298BF00F801CB38BF9A
:1006700000F8013B11F0030300F0FE83083AC0F0DC
:10068000088051F8043B083A51F804CBA0E8081060
:10069000F5E7121D5CBF51F8043B40F8043BAFF393
:1006A0000080D20724BF11F8013B11F801CB48BFED
:1006B00011F8012B24BF00F8013B00F801CB48BF23
:1006C00000F8012B704702F0FF0343EA032242EADD
:1006D000024200F002B84FF0000200B51346944603
:1006E0009646203922BFA0E80C50A0E80C50B1F18A
:1006F0002001BFF4F7AF090728BFA0E80C5048BF9E
:100700000CC05DF804EB890028BF40F8042B08BF3B
:10071000704748BF20F8022B11F0804F18BF00F837
:10072000012B7047704770477047000008487CB540
:100730007844009007487844009C0546019004E006
:100740002046016808448047241DAC42F8D17CBD96
:10075000D0FF0000CEFF000070B5064600F0C0FBE1
:10076000056806F10B0020F00704B4429CBF00208E
:1007700070BD2B466A68BAB11068A04210D304F16C
:10078000080188423CBF5068586007D3516810196F
:1007900041601168091B016058601460101D70BD34
:1007A00013465268002AE7D12146284600F0A8FBEC
:1007B0000028DED170BD70B50446051F00F090FB27
:1007C0000068002C14BF446870BD002C18BFAC42F8
:1007D0003CBF20466468F8D301680A18AA4218BFD3
:1007E000456003D12A680546114401602868411913
:1007F000A1421CBF6C6070BD6168696021680844DB
:10080000286070BD2DE9F04791460C46804600F007
:1008100067FB0768604234EA000001D1042C02D271
:100820000520BDE8F087601E40F0070609F10B00C7
:1008300020F007054D4539D93B467A6882B31468E4
:10084000101D404206EA000C644525D9A4EB0C00BB
:10085000854221D8BCF1000F0BD0104601686244DC
:10086000A1EB0C01116041685160C0F800C05860F4
:100870000346116805F10800814205D35019491B50
:10088000016015605860034652F8040F586000205C
:10089000C8F80020BDE8F08713465268002ACED180
:1008A0002946384600F02CFB0028C5D10620BDE8BB
:1008B000F08710B500F01CFB006810BD10B50446B1
:1008C00000F016FB046010BD70B504468569006831
:1008D000C10601D5302600E02026C00707D070BD34
:1008E000D4E9012130469047206A401C20626D1EE9
:1008F000F6D570BD70B5044685690078C00707D18C
:1009000070BDD4E9012120209047206A401C20625C
:100910006D1EF6D570BD09684A0501D540B2704715
:10092000C905FCD500B2704709684A0501D5C0B2B7
:100930007047C905FCD580B2704770B50C460546B6
:10094000012A05D02878800600D5EA69002302E054
:10095000012305E05B1C934202D2E05C0028F9D140
:10096000A869E618C01AA861286A184428622846AF
:10097000FFF7AAFF04E0D5E9012114F8010B904725
:10098000B442F8D32846FFF7B5FF70BD2DE9F0411A
:100990000646002410687529314616A510D0FFF7C9
:1009A000BAFF002802DA404213A507E031688A073F
:1009B00001D512A502E0490704D511A5012401E0E3
:1009C000FFF7B2FF00210A2206F1240709E0B0FB7D
:1009D000F2FCB0FBF2F302FB1C00303078541846F6
:1009E000491C0028F3D123462A463046BDE8F04191
:1009F00000F014BB000000002D0000002B000000E0
:100A00002000000011680268006A530501D50870D3
:100A10000AE0D30501D5088006E0130603D5C21706
:100A2000C1E9000200E008600120704701694A1C2A
:100A300002610878704700B58FB0CDE9013100211F
:100A4000059105497944CDE903101146684600F047
:100A50002BF90FB000BD0000E5FFFFFFD1E9002337
:100A60009A4202D2531C0B60107070472DE9FF5F51
:100A700015468A460446DFF8AC80F8440027D8E9DA
:100A800000103E46CDE9001010E03AF816106A4614
:100A900002A800F0D5FE411C07D02178890603D5B5
:100AA000E269391891420DD80744761C20788006F7
:100AB00002D5E069B84205DDAE42E6DB3AF8160041
:100AC0000028E2D1A069C01BA0612046FFF7FCFE10
:100AD000D8E90010CDE90010002017E03AF818100E
:100AE0006A4602A800F0ACFEB0F1FF3F81460BD091
:100AF00000250DF1080B05E0D4E901211BF80500E4
:100B000090476D1C4D45F7D308F10100B042804677
:100B1000E4DB206A384420622046FFF7EBFEBDE8A4
:100B2000FF9F0000A2F700002DE9F0418046D21D92
:100B300022F007020025D2E90002F52915A614D0FB
:100B4000011E72F1000106DA0023D0EB030063EB13
:100B5000020211A608E0D8F800108B0701D50FA6F5
:100B600002E0490701D50EA601251146002408F12F
:100B7000240704E000F00DFA30323A55641C50EAC4
:100B80000102F7D12B46324621464046BDE8F041EE
:100B900000F044BA000000002D0000002B0000000F
:100BA0002000000030B4002100F1240408E002F02D
:100BB0000705D208303542EA4372DB086554491C08
:100BC00052EA0305F3D10468002310A2250708D5D3
:100BD00004F020040C4304D0C46901230CA2641E59
:100BE000C46130BC00F01ABA10B504462146106842
:100BF000FFF79AFE02462046BDE810400023D1E7E9
:100C0000D21D22F00701D1E90023CBE7000000004C
:100C100030000000F0B40D460188090502D5214CD2
:100C20007C4402E01F4C7C440E34002100F1240679
:100C300008E002F00F071209E75D42EA03721B09A0
:100C40007754491C52EA0307F3D1027800231207B4
:100C500004D5702D06D009B1022311342246F0BC10
:100C600000F0DCB901231034F8E770B504460D46F6
:100C700021461068FFF758FE024629462046BDE887
:100C800070400023C6E7D21D22F00703D3E90023FA
:100C9000C0E70368126843F0200303600823C361C0
:100CA0000023B7E704F600002DE9F05F894604460B
:100CB0004FF0000ADFF874B1FB44C0F820A02046D2
:100CC000E1688847002874D0252806D0D4E901219E
:100CD0009047206A401C2062F1E700265F462046CC
:100CE000E16888472028054607DB312D05D27819B1
:100CF00010F8200C08B10643F1E7B00701D526F043
:100D00000406C4F81CA00027C4F818A02A2D09D096
:100D100028460FF011F938B304EB8708303DC8F8C6
:100D2000185019E059F8041B204604EB8702916122
:100D3000E1688847012F054618D1E069002820DACC
:100D400026F020061DE0D8F8180000EB800005EB27
:100D500040003038C8F818002046E168884705464A
:100D60000FF0EAF80028EED1012F0AD02E2D08D17D
:100D70002046E16888477F1C0546022F46F0200682
:100D8000C4DBA069002803DA404246F00106A061F6
:100D9000F00701D026F010066C2D0BD0682D09D07D
:100DA0004C2D39D06A2D35D0742D35D07A2D33D0D5
:100DB00016E038E0E1682F4620468847B8420546ED
:100DC00009D16C2F26D04FF48060E168064320469D
:100DD0008847054604E06C2F1AD04FF48070064314
:100DE0000DB3A5F14100192802D8203546F400665C
:100DF0004A462946204626604E46FFF7C7FA80B18C
:100E000001280BD0F61D26F0070000F1080956E76F
:100E10004020E4E78020D8E70020D6E706F1040967
:100E20004DE7284652E7206ABDE8F09F94F50000A0
:100E30002DE9F041074615460E461020FFF78CFCC1
:100E4000040013D06760C4E902650948AFF300806D
:100E500000F04AF80168216006490460002008603B
:100E60000348AFF300800020BDE8F0810120FBE7DC
:100E7000040000240000002410B5203AC0F00B80CC
:100E8000B1E81850A0E81850B1E81850A0E8185080
:100E9000203ABFF4F5AF5FEA027C24BFB1E81850F6
:100EA000A0E8185044BF18C918C0BDE810405FEA58
:100EB000827C24BF51F8043B40F8043B08BF7047D4
:100EC000D20728BF31F8023B48BF11F8012B28BFD9
:100ED00020F8023B48BF00F8012B70470020704704
:100EE00000487047D80100240048704708020024D9
:100EF00000487047D0010024704770477047704722
:100F000038B504460A4600206946AFF30080002841
:100F100008BF38BD02460099204600F035FD01208B
:100F200038BD012000F012BEF8B5AFF300800546D1
:100F300000200C460C2000BF0646A819A0420DD97F
:100F4000324669460020AFF30080070008BF00F07A
:100F5000FDFD0098A04218BF0546C419FFF7C0FF69
:100F600005600746F01D20F007004619284600F0EE
:100F70000AF8B44208BFF8BDA21B31463868BDE884
:100F8000F84000F001BD00210160416070470C2075
:100F9000704730B5B0F10A0271F100034FEA900ECC
:100FA0004EEA817EB0EB0E0061EB91014FEA101E1C
:100FB0004EEA017E10EB0E0041EB11114FEA102EAC
:100FC0004EEA016E10EB0E0041EB11214FEA104E7C
:100FD0004EEA014E10EB0E0041EB1141401841F179
:100FE00000014FEAD00040EA41704FEAD1014FEAD8
:100FF000810444EA907410EB800544EB01046D1900
:1010000044EB0404521BA3414FF0000348BF0A32D3
:1010100000D530BD401C41F1000130BD2DE9F04745
:101020000D4699469246044600F124080168880658
:1010300004D5E06921F01001216000E00120A84200
:1010400001DD471B00E00027A1697A1902EB0900C6
:10105000081AA0612078C00602D42046FFF734FCAD
:10106000002608E0D4E901211AF806009047206A1A
:10107000401C761C20624E45F4DB2078C0060AD561
:101080002046FFF721FC06E0D4E9012130209047FB
:10109000206A401C2062381EA7F10107F4DC07E03B
:1010A000D4E9012118F805009047206A401C20620D
:1010B000281EA5F10105F3DC2046FFF71BFC207874
:1010C000000602D50220BDE8F0870120FBE72DE9EC
:1010D000FF4F0C461E464FF0FF378BB0D2E90001A0
:1010E000DDF860800A908A46C1F30A5505B93D468D
:1010F000002108464FF00000BAF1000F00F4400054
:1011000005DA00EB80004FF4400101EA50004FEA9D
:101110009059B9F1010F00DDB9460A9850EA4A002A
:101120000ED044F61050A5F2FF3545432F14B8F108
:10113000000F1ED07542291E1EDDC9F100021CE001
:10114000B8F1010F4FF0000001D0302103E0F2436D
:1011500005E02154401CB042FBDB30460022002158
:1011600021540B99C1F80880C1E900200FB0BDE8F7
:10117000F08FBD1B6D1CDEE74A4600DA694206A807
:1011800000F062FC06AB93E8070003AB83E80700BE
:1011900050460A990EF07EFA8DE80700A0F500503F
:1011A0001F3800900398002D0ADD42F21F014A46C5
:1011B0000844002303A9039068460EF0E7FC09E009
:1011C000A0F500504A461F38002303A90390684643
:1011D0000EF0F1FC8DE807000004000C03D04FF086
:1011E000FF30410800E01046B8F1000F03D00022A4
:1011F000009215461EE0751E05D4FFF7CAFE303278
:1012000062556D1EF9D5B3460122084302D0002273
:101210007F1C04E02078302801D100227F1E002AA4
:10122000099784D01DE0112D07DAFFF7B2FE3032A6
:1012300062556D1C50EA0102F5D1084302D00098B6
:10124000C8B10EE00021681E05E0235C625C6354B7
:101250002254401E491C8142F7DBAB46A81B401EAE
:101260000990002004F80B000B98099AC0F8088038
:10127000C0E9002B7AE711264FF0000857E72DE967
:10128000F04F88460446D21D22F0070191B0D1E903
:101290000001CDE90A010EF0D7FD02460B98C00F00
:1012A00001D02D2007E02068810701D52B2002E026
:1012B000202101EAC000032A099001D0072A05DB9A
:1012C00003464146204600F07FFB0BE12078800674
:1012D00001D5E06900E00620B8F1650F814606D02F
:1012E000B8F1660F18D0B8F1670F70D131E0002067
:1012F000B9F1110F009001DB112301E009F10103A5
:101300000AAA01A90CA8FFF7E2FEDDE90C7000268D
:1013100009F10105834647E001204B4600904FF05C
:1013200000470AAA01A90CA8FFF7D1FEDDE90DB01C
:101330000C995D46002610B909F101000D18B9EBB2
:10134000050003D4C0F1FF3609F10105A5EB090042
:101350002BE0B9F1010F01DA4FF001090020B9F1DA
:10136000110F0090484601DD112300E003460AAA50
:1013700001A90CA8FFF7ABFEDDE90C704D46002675
:101380008346207800070AD4AB4500DA5D4601A801
:10139000012D04DD411911F8011C302907D04F45FA
:1013A00002DA17F1040F04DA012082460FE06D1E05
:1013B000EEE7002F02DCED1B3E4403E0781CA84260
:1013C00000DD7D1CB81B00F1010A4FF000472078BA
:1013D000000703D4AA4501DB4FF0FF3A0021B7F123
:1013E000004F0DF143088DF8431024D002202B2329
:1013F000002F01DA7F422D230A21021EA0F10100F5
:1014000000DC5FB197FBF1FC97FBF1F201FB1C7C68
:1014100017460CF1300C08F801CDEEE7A8F10100F9
:1014200003702188090501D5452100E06521A0F15F
:10143000010800F8011C09980FA9A1EB0807FF1D7E
:1014400000B10120411901EBEA70A1693844081A82
:10145000401EA0612078C00602D42046FFF734FA6F
:10146000099828B1D4E901219047206A401C2062E4
:101470002078C00622D52046FFF726FA1EE0002E6F
:1014800004DBB34502DD01A8805D00E03020D4E933
:1014900001219047206A401C2062761CAAF10100BD
:1014A0005FEA000A0AD100F06BFAC0680168405C8C
:1014B000D4E901219047206A401C2062281EA5F132
:1014C0000105DCDC07E0D4E9012118F8010B9047A5
:1014D000206A401C2062381EA7F10107F3DC204679
:1014E000FFF708FA032011B041E600002DE9F04FA4
:1014F00004460D46D21D22F0070089B0D0E90097BE
:10150000484639460EF0A0FC0246F80F01D02D23C4
:1015100007E02068810701D52B2302E0202101EAA2
:10152000C0038DF820300BB1012000E00020032A19
:10153000824601D0072A04DB2946204600F044FAFF
:101540003FE12078800601D40D2500E0E569C7F36E
:101550000A560D2D49DA00214FEA175B08464FF075
:101560000000002F00F4400007DA00EB80004FF489
:10157000400100EBD07001EA60008115012901DD16
:101580004FF0FF3100224FEA850CBCF1180F06D353
:101590001346ACF118004FF08052C24003E04FF404
:1015A000801323FA0CF30CF10C0CBCF1200F04D3C4
:1015B000ACF1200C09FA0CF001E007FA0CF000295C
:1015C0004FF0004801DD18B90FE00ED140450CD3B3
:1015D00019EB02095F4121B9404502D19F4329EA35
:1015E0000209BBEB175F00D0761C2088000502D5EE
:1015F0007B48784402E07A487844193808AA3023B6
:1016000002F80A30037C0AF10101002E0AF1020AF5
:1016100053546A4602DC4FF0300101E04FF03101D3
:101620004FF001088DF8001002D0A6F2FF3603E05B
:1016300059EA470100D06B4E002D02DC21780907E2
:1016400004D54FF002082E218DF80110C446002168
:101650000BE0C7F303433F01C35C491C6D1E02F856
:101660000830052908F1010801DA002DF1DC00211C
:101670000CE000EB1973491C1B786D1E082902F859
:1016800008304FEA091908F1010801DA002DF0DCF1
:1016900021688B0602D516E0A8F10108E04505DDBA
:1016A00002EB080313F8013C302BF5D0B8F1000F22
:1016B00009DD02EB080313F8013C2E2B03D10907C7
:1016C00001D4A8F10108002D05DD3E2102F8081023
:1016D0006D1E08F10108407C002E02F8080008F198
:1016E000010804DA2D20764202F8080002E02B20DF
:1016F00002F808000A214FF47A70864208F10108C6
:101700000BDB96FBF0F3303302F8083096FBF0F376
:1017100008F1010800FB136601E0642E0CDB642075
:1017200096FBF0F3303302F8083096FBF0F308F143
:10173000010800FB136601E00A2E06DB96FBF1F0C0
:10174000303002F8080008F1010896FBF1F001FBC7
:101750001060303002F80800A16908F1010808EBB8
:10176000050202EB0A00081AA0612078C00602D424
:101770002046FFF7A9F8216A08AE01EB0A002062B3
:1017800004E0D4E9012116F8010B9047BAF1010AEF
:10179000F7D22078C00602D52046FFF795F86E46AE
:1017A00009E016F8010B3E280FD0D4E9012190473B
:1017B000206A401C2062B8F10108F2D22046FFF7EF
:1017C00099F809B00320BDE8F08F206A2844206210
:1017D00003E0D4E90121302090476D1EEBD3F8E7F8
:1017E0007EEC000002FCFFFF10B5436913B1AFF3BC
:1017F000008001E0FFF7A1F8012010BD127800F190
:1018000024010A7000224A700122EDE711684FF0AE
:10181000FF32E9E710B5436913B1AFF3008001E08F
:10182000FFF724F9012010BD128800F12401828401
:101830000022C2840122EDE711684FF0FF32E9E790
:101840002DE9F04116460C46054600F091F8036874
:1018500093F80101012807D0FF2C12D8185D80B140
:1018600001202C70BDE8F081D3F8070132462146F3
:1018700003F20713C7182846BC46BDE8F041002311
:1018800060474FF0FF30EDE710B5002000F057F94A
:10189000FEF7E0FDBDE81040012000F039B800007F
:1018A0002DE9F84306461548AFF30080FFF71CFB0F
:1018B000134F8146E8464D4616E026B1E068B04237
:1018C00001D0254610E0206828600C48C7F8008049
:1018D000AFF30080D4E9010188470848AFF30080E6
:1018E0003968414500D04D462C68002CE5D10020D8
:1018F00038600248AFF30080BDE8F883040000249C
:10190000000000240148FFF7E9BA000004000024A9
:1019100001491820ABBEFEE72600020000487047D0
:10192000D00100247546FFF7F9FFAE460500694671
:10193000534620F00700854618B020B5FEF7B0FDED
:10194000BDE820404FF000064FF000074FF00008C0
:101950004FF0000BAC46ACE8C009ACE8C009ACE8FD
:10196000C009ACE8C00921F007018D4670470000AE
:1019700010B500F005F8001D10BD00BF15E6000011
:1019800000487047F0010024034640688C46002858
:1019900018BF88423CBF03464068F8D31868184413
:1019A000884207D00CF1030020F00700001D411A07
:1019B000521A0146081D0A60FEF7FDBE0B4601469D
:1019C000184600F0CBB800002DE9F0411F46044650
:1019D00003260168072A01F4006004DB08B116A59C
:1019E00005E016A503E008B115A500E015A521F056
:1019F00010002060A069C01EA0610FB1401EA06150
:101A00002046FEF761FF4FB1D4E9012138469047E7
:101A1000206A401C2062C01C206206E0206AFAE7AF
:101A2000D4E9012115F8010B9047761EF8D2204623
:101A3000FEF760FFBDE8F0814E414E006E616E0022
:101A4000494E4600696E66002DE9F047814616460C
:101A50008AB0354878440DC88DE80D003248784486
:101A6000801C03AC0DC884E80D0041F69B3008448F
:101A7000372190FBF1F290FBF1F5A5F1800501FB18
:101A800012041B3C02D56442012000E00020DFF874
:101A900098A080460027FA44AAF1BE0A0EE0E007AB
:101AA0000AD03246684607EB470101230AEB810161
:101AB0000EF081F88DE8070064107F1C002CEED139
:101AC000194F7F44AE3F19E0E80715D007EB04102B
:101AD0000DF1180A90E80E008AE80E00C068F04286
:101AE00001D1981908903246012306A903A80EF0E7
:101AF00062F803AB83E807006D10641C002DE3D18E
:101B00004FF0010332466946B8F1000F03A802D036
:101B10000EF03CF801E00EF04EF8C9E90001C9F8FA
:101B200008200AB0BDE8F087ACE8000010B5044614
:101B3000AFF300802046BDE81040FEF79BBC10B517
:101B400000F0C0F8BDE8104000F0B6B810B500F0E5
:101B5000D1F8BDE8104000F0AFB87047074B70B542
:101B60000D467B44FEF767FF0446284600F02AF93D
:101B700010B14FF0FF3070BD204670BDE1E30000B2
:101B800010B542485421FEF7A6FD41485421FEF706
:101B9000A2FD40485421FEF79EFD3F493B483C4A88
:101BA0003F4B08603D490A603A491960531C036580
:101BB000481C1065012008653B48344A39A1784427
:101BC00000F028F920B9384878440A3800F0D9F9EB
:101BD00037482F4A35A1784400F01CF920B9344821
:101BE00078440A3800F0CDF932482A4A2FA17844C7
:101BF00000F010F920B92F4878440A3800F0C1F9F4
:101C000040232248DC000021224600F0DFF820B10A
:101C100025487844543800F0B4F91D482246402342
:101C2000002100F0D3F820B121487844543800F066
:101C3000A8F9184822461023002100F0C7F8002810
:101C400006D01C487844BDE81040563800F099B9D9
:101C500010BD104870B5006D20F001040B4800F075
:101C600051F90B4800F04EF90A4800F04BF909E031
:101C7000206D20F00105204600F044F92046FEF7D3
:101C80009AFD2C46002CF3D170BD000030020024D8
:101C900084020024D8020024080000240C00002440
:101CA00010000024720000005AE7000077000000D6
:101CB00046E7000032E70000002801D0FFF728BE09
:101CC0007047000010B5002102A000F041F901208A
:101CD00010BD0000534947414252543A2041626EC0
:101CE0006F726D616C207465726D696E6174696F7D
:101CF0006E00000010B5012805D0002103A000F0FF
:101D000027F9012010BD09A1F8E700005349475207
:101D1000544D454D3A204F7574206F6620686561BB
:101D200070206D656D6F7279000000003A20486583
:101D30006170206D656D6F727920636F727275705E
:101D4000746564000000000030B44FF0013C50F8AE
:101D5000042BCCFA52F451F8043BD51A20D1FCB92B
:101D600050F8042BCCFA52F451F8043BD51A17D191
:101D7000B4B950F8042BCCFA52F451F8043BD51AFC
:101D80000ED16CB950F8042BCCFA52F451F8043B44
:101D9000D51A05D1002CDAD030BC4FF000007047C6
:101DA00029BAB1FA81F111F01801D1F12000844073
:101DB000F2D1CA40CB4012F0FF0213F0FF0330BC57
:101DC000D01A7047007B00F08000704770B5C4687F
:101DD000A50713D0650211D4B2F5807F09D0B2F502
:101DE000007F06D0B2F5806F08D1012300F12401F5
:101DF00006E05D1E6FF07F46B54201D3012070BD45
:101E00000161C361416024F470611143C16000202D
:101E100070BD00002DE9F0410C461646070047D082
:101E2000104600F06FF82078611C61280AD07228F3
:101E300002D077283CD102E00125002405E00225EC
:101E4000042402E0082448F2020511F8010B2B28B3
:101E500006D0622809D011F8010C74280AD00BE0D2
:101E600045F0030544F00204EFE745F0040544F0B3
:101E70000104EAE744F010043846214600F088F8EF
:101E8000411C15D00021316171604FF40071F56083
:101E9000F1617061200704D530460222002100F074
:101EA000A3F9306D40F0010030653046BDE8F081A7
:101EB0000020FBE72DE9F0410D460646104C206D51
:101EC000C10704D0410804D020F00104F7E72246FE
:101ED0000EE05420FEF740FC07000ED0206D47F0C6
:101EE00001010843542120653846FEF7F4FB3A46C9
:101EF00029463046BDE8F0418CE70020D6E70000D7
:101F0000300200242DE9F04704464FF0FF38002648
:101F1000C568D4E90497A80718D0204600F020FA35
:101F2000384600F03FF8002800DA4646280502D57A
:101F30004846FEF740FC4C212046FEF7CCFB206DC6
:101F400020F0010020653046BDE8F0874046FBE701
:101F500070B505460C460A2000E06D1C00F04BF8F9
:101F600035B128780028F8D102E0641C00F043F86D
:101F700014B120780028F8D1BDE870400A2000F0A4
:101F80003AB810B500F030FABDE81040FFF794BE43
:101F90000EB5CDE90001FEF732FB02906946012043
:101FA000ABBE0EBD08B5694600900220ABBE08BDB1
:101FB0001FB58DE8070069460520ABBE04B010BD13
:101FC0001FB58DE80F0069460620ABBEF6E708B5E1
:101FD000694600900920ABBE08BD1CB5CDE90001E3
:101FE00069460A20ABBE1CBD704708B56946009023
:101FF0000C20ABBE08BD08B569468DF80000032073
:10200000ABBE08BD2DE9F05F054617460C46C86813
:1020100020F4201040F48000C860800602D50846F5
:1020200000F0C1F9E06841F282014FF0FF3A01404F
:10203000022903D0204600F053F9B9E000F4204112
:10204000B1F5004F0FD1C00306D56168E06A884240
:1020500000D80846606006E02069E0626060606960
:10206000FFF7C3FFA061A0680022EEB200280DDADE
:10207000E1688B050AD4C043A06041F4903022602F
:10208000E0606068411C61600670AAE0E06891460B
:10209000226040F40050E060206978BB6069FFF77F
:1020A00096FF04F124054FF00108A8B1A08910F4AF
:1020B000407F08D0E069FEF74FFB206118B1E0686F
:1020C00040F4006017E0C4F81C802561E06820F44B
:1020D000407040F480600EE0E069FEF73DFB0028B0
:1020E0002061F0D0E06840F4006010F4407FE060D0
:1020F00002D140F48070E06020696060E06825698A
:102100006FF0010BC1051ED56168E06A884200D8F6
:102110000846411B04D02246284600F0EBF8E8BBF5
:102120001FB1E562C4E9015959E0681CE0626060D2
:10213000E069401EA060E06840F48030E060304616
:102140002E70BDE8F09F17B100F480320AE060689D
:10215000411C61600670E0680A2E40F48030E06047
:1021600006D00022E16A6068814203D90B4602E092
:102170000122F7E70346B4F80CC05B1B5FEA4C5C36
:1021800004D4D4F81CC09C4500DD02B3814200D8C1
:102190000146002BA1EB0008E56200E008E0C4E97D
:1021A000015907DD22461946284600F0A3F808B178
:1021B0005046C6E7B8F1000F09D0A169E562656035
:1021C000A1EB0800A061E06840F01000E06047B1BA
:1021D0006168A069E562491B08446560A0615846D2
:1021E000AFE73046ADE700002DE9F0410446164662
:1021F0000D464769007B80072ED03846FFF7E7FE83
:1022000050BB3EB3012E02D0022E25D104E0204661
:1022100000F004F905441DE03846FFF7E6FEE168EA
:10222000002841F01001E16005DA204600F058F87E
:102230000120BDE8F081C9030BD56268E16A9142D3
:1022400000D81146A26911442269891A814200DD31
:1022500008460544002D01DA0220EAE7E16A6068D9
:10226000E268814206D29103E06203D522F4003194
:1022700041F01002A6690027AE4213DCE16A8142F8
:1022800001D90B4600E0034603EB060C2369ACEBD7
:10229000030CAC4506DD814201D98C4600E0844642
:1022A0009C4505D1A760276042F02000A5620DE0A3
:1022B000AD1BE669AE1B8142A66000D90846C01A74
:1022C000281A20605819606022F020000349084055
:1022D000E060002084F84870ABE70000BFCFD7FF74
:1022E000C16821F4001141F08001C16000218160CA
:1022F000016070472DE9F74F15460C464FF0FF3B44
:102300003848D768D2F814A0074209D05046A969C6
:10231000FFF763FE002819DB3248C0430740EF6037
:102320004FF000496FF000484C4501D3464600E0AD
:10233000264600993B4650463246FFF739FEA969CA
:1023400020F00042B21A1144A96128B12846FFF7D3
:10235000C7FF5846BDE8FE8FA41BE5D10020F9E772
:1023600070B504460569C06A6168884200D80846AD
:10237000E16821F42011E160C90312D5A84208D018
:102380002246411B2846FFF7B5FF10B14FF0FF3042
:1023900070BD0020E562C4E90150E06820F480309F
:1023A000E060002070BD10B50446C06820F0200039
:1023B000E060A16AA06988420DD02046FFF7D0FFF7
:1023C000E06820F4405040F01000E060A06AA06196
:1023D0002069E062606044F24001E0688843E060A8
:1023E00010BD00001000020010B5014602A0FFF76A
:1023F000AFFD012010BD00005349475254524544DF
:102400003A2052656469726563743A2063616E278D
:1024100074206F70656E3A200000000010B5014610
:10242000C268900703D0900607D5886A0AE0FEF7D5
:102430005FFD01210160881E10BD8B69486818444A
:102440000B69C01A91F848301BB191F84910401A35
:1024500010BD1103FCD50028FADD401E10BD0000A0
:1024600080B540F20C10C2F2004009F07DFC0AF089
:10247000FBFB42F25821C2F20041BDE880400AF065
:1024800033BC000000000000FEE700000000000078
:10249000002070470000000000207047000000008E
:1024A00010B541F6400441F20801C2F20044C2F204
:1024B00000410022204607F02FFD40F6080120468B
:1024C000C2F2004107F018FD002010BD000000001E
:1024D00010B5096808F04CFD41F6400440F60801CB
:1024E000C2F20044C2F20041204607F005FD20463A
:1024F00007F0DEFC002010BD002070470000000047
:1025000041F64002C2F20042D2F8BC22D2F81422B4
:10251000002A1CBF0120704710B541F640040A464E
:10252000C2F200440146204607F0F6FC2046BDE812
:10253000104007F069BD000041F61C30C2F20040B7
:1025400000F03ABE0000000040F20F42D0F800C098
:10255000C4F20202944510DC6F22C4F202029445D8
:1025600020DC3F22C4F20202944536DC1022C4F281
:102570000202944554D028224EE040F26F42C4F249
:10258000020294451ADC40F23F42C4F20202944532
:102590002ADC40F21042C4F20202944540D040F2DC
:1025A000284239E09F22C4F20202944525DC7022C1
:1025B000C4F20202944533D088222DE040F29F42BB
:1025C000C4F2020294451FDC40F27042C4F20202DF
:1025D000944525D040F288421EE04022C4F2020217
:1025E00094451DD0582217E040F24042C4F2020246
:1025F000944515D040F258420EE0A022C4F20202E7
:1026000094450DD0B82207E040F2B842C4F202026D
:10261000944505D040F2A042C4F20202944517D17D
:102620000CF0F8024AF6AB23103ACAF6AA23A2FB32
:10263000033109A35F2AC1F302115B5C40F2FF3151
:102640002CEA0101C36588BF0431816508467047E3
:102650002CF0FF01F9E700BF000610160006101667
:1026600070B540F26F44D0F800C0C4F20204D0F854
:1026700058E0A44519DC9F25C4F20205AC4531DCC5
:102680005725C4F20205AC4556DC1025C4F20205FC
:10269000AC4500F092802825C4F20205AC4500F05C
:1026A0008C804025C4F2020584E045F22F45C5F632
:1026B0000205AC452BDC40F2B745C4F20205AC453F
:1026C00048DC40F27045C4F20205AC4575D040F2DA
:1026D0008845C4F20205AC456FD040F2A045C4F273
:1026E000020567E040F22745C4F20205AC4540DC34
:1026F000A025C4F20205AC455FD0B825C4F202059E
:10270000AC455AD040F21045C4F2020552E045F201
:102710006B45C5F60205AC453CDC45F23045C5F6D7
:102720000205AC4549D045F24445C5F60205AC4525
:1027300043D045F258453BE05825C4F20205AC456C
:102740003BD07025C4F20205AC4536D08825C4F2D2
:1027500002052FE040F2B845C4F20205AC452CD08A
:1027600045F20845C5F60205AC4526D045F21C45A4
:102770001EE040F22845C4F20205AC451DD040F2EF
:102780004045C4F20205AC4517D040F25845C4F2AA
:1027900002050FE045F26C45C5F60205AC450CD0CC
:1027A00045F29445C5F60205AC4506D045F2804594
:1027B000C5F60205AC4540F0CC80456EC66E002ED5
:1027C000866E6E601CBFD0E91C566E60A44515DC99
:1027D0009F24C4F20204A4452BDC5724C4F2020453
:1027E000A4454EDC1024C4F20204A44576D028246B
:1027F000C4F20204A44571D040246BE045F22F449A
:10280000C5F60204A44527DC40F2B744C4F2020432
:10281000A44542DC40F27044C4F20204A4455DD0F9
:1028200040F28844C4F20204A44557D040F2A044C8
:1028300050E040F22744C4F20204A4453CDCA0244A
:10284000C4F20204A44549D0B824C4F20204A44549
:1028500044D040F210443DE045F26B44C5F602041A
:10286000A44553DC45F23044C5F60204A4455FD0CC
:1028700045F24444C5F60204A44559D045F25844F3
:1028800052E05824C4F20204A44527D07024C4F2B4
:102890000204A44522D088241CE040F2B844C4F2CB
:1028A0000204A4451AD045F20844C5F60204A44522
:1028B0003ED045F21C4437E040F22844C4F2020402
:1028C000A4450BD040F24044C4F20204A44505D014
:1028D00040F25844C4F20204A4453AD18468C06D61
:1028E00000F01F003F2505FA00F0CEF80800DCF8E4
:1028F0000000402C20F48020CCF80000CCF80430FC
:1029000023D1CCF80820CCF80C1070BD45F26C44F3
:10291000C5F60204A4450BD045F28044C5F6020476
:10292000A44505D045F29444C5F60204A44510D14F
:10293000C46D012504F01F04806805FA04F4CEF884
:1029400004404028CCF80430DBD0CCF80810CCF898
:102950000C2070BD00000000704700000000000067
:10296000EFF3108072B600BFFEE700000000000029
:1029700044F60C00C5F60200016841F00201016056
:1029800050F8081C8904FBD57047000000000000C7
:1029900041F69430C2F2004001F0D2BF00000000C6
:1029A00041F63440C2F2004001F0CABF000000000E
:1029B00041F6D440C2F2004001F0C2BF0000000066
:1029C000F0B5D1E900C4D1F808E00D692CB14EEAA8
:1029D0000C04254345F0804C03E045EA8C4444EA6E
:1029E0000E0C856ED0F88470D1E907466B438D6973
:1029F00044EA0660D1F814E0CC68054307EB830095
:102A000045EA0E0647F823C046EA04434360CB6814
:102A1000002B08BFF0BD40F2C44C08300132002347
:102A2000C0F6010CD71857F8017CC750CF680433A3
:102A30001CF80770BB42F5D3F0BD00000000000099
:102A40002DE9F041044602F00FFD14B3054694F859
:102A50003500022820D140F20F472668C4F2020751
:102A600040F26F48BE426FF00E00C4F2020817DC5D
:102A70006F21C4F202018E4223DC3F21C4F2020125
:102A80008E4239DC1021C4F202018E4258D0282136
:102A900051E00120BDE8F08180206065012037E22F
:102AA00046451ADC40F23F41C4F202018E422ADC64
:102AB00040F21041C4F202018E4241D040F228415E
:102AC00039E09F21C4F202018E4225DC7021C4F25C
:102AD00002018E4234D088212DE040F29F41C4F2A1
:102AE00002018E421FDC40F27041C4F202018E42AC
:102AF00026D040F288411EE04021C4F202018E42FD
:102B00001ED0582117E040F24041C4F202018E422B
:102B100016D040F258410EE0A021C4F202018E42CC
:102B20000ED0B82107E040F2B841C4F202018E4253
:102B300006D040F2A041C4F202018E42314607D1D4
:102B40003146306820F01E0041F8140B6FF0800011
:102B50000A68464500EA0200086019DC9F20C4F2BA
:102B60000200864231DC5720C4F20200864256DC65
:102B70001020C4F20200864200F091802820C4F2A6
:102B80000200864200F08B804020C4F2020084E004
:102B900045F22F40C5F6020086422BDC40F2B740DA
:102BA000C4F20200864248DC40F27040C4F20200E7
:102BB000864274D040F28840C4F2020086426ED051
:102BC00040F2A040C4F2020067E040F22740C4F2A5
:102BD0000200864240DCA020C4F2020086425ED0A1
:102BE000B820C4F20200864259D040F21040C4F22C
:102BF000020052E045F26B40C5F6020086423CDC22
:102C000045F23040C5F60200864248D045F24440C5
:102C1000C5F60200864242D045F258403BE05820BB
:102C2000C4F2020086423AD07020C4F2020086420A
:102C300035D08820C4F202002FE040F2B840C4F240
:102C4000020086422BD045F20840C5F602008642BB
:102C500025D045F21C401EE040F22840C4F202009C
:102C600086421CD040F24040C4F20200864216D098
:102C700040F25840C4F202000FE045F26C40C5F645
:102C8000020086420BD045F29440C5F6020086420F
:102C900005D045F28040C5F60200864204D1206E80
:102CA000016821F480710160306820F0010030601B
:102CB0003068C0070BD002F0D7FB401B0628F7D3C3
:102CC00020206065032084F83500012020E1206881
:102CD0000821B8424FF03F0210DC6F23C4F2020318
:102CE00098421CDC3F23C4F20203984232DC1023DA
:102CF000C4F20203984251D028234AE040451ADC2E
:102D000040F23F43C4F2020398422ADC40F21043EF
:102D1000C4F20203984241D040F2284339E09F2395
:102D2000C4F20203984225DC7023C4F202039842E5
:102D300034D088232DE040F29F43C4F2020398422E
:102D40001FDC40F27043C4F20203984226D040F2E6
:102D500088431EE04023C4F2020398421ED0582349
:102D600017E040F24043C4F20203984216D040F20A
:102D700058430EE0A023C4F2020398420ED0B823B9
:102D800007E040F2A043C4F20203984206D040F2AA
:102D9000B843C4F20203984240F0BF80D4E916372A
:102DA00007F01F07404502FA07F25A5019DC9F212D
:102DB000C4F20201884231DC5721C4F20201884288
:102DC00056DC1021C4F20201884200F091802821D3
:102DD000C4F20201884200F08B804021C4F202015B
:102DE00084E045F22F41C5F6020188422BDC40F217
:102DF000B741C4F20201884248DC40F27041C4F29B
:102E00000201884274D040F28841C4F20201884233
:102E10006ED040F2A041C4F2020167E040F22741C7
:102E2000C4F20201884240DCA021C4F202018842BF
:102E30005ED0B821C4F20201884259D040F210415C
:102E4000C4F2020152E045F26B41C5F6020188422C
:102E50003CDC45F23041C5F60201884248D045F2DB
:102E60004441C5F60201884242D045F258413BE058
:102E70005821C4F2020188423AD07021C4F2020102
:102E8000884235D08821C4F202012FE040F2B841D7
:102E9000C4F2020188422BD045F20841C5F6020176
:102EA000884225D045F21C411EE040F22841C4F280
:102EB000020188421CD040F24041C4F20201884223
:102EC00016D040F25841C4F202010FE045F26C41C5
:102ED000C5F6020188420BD045F29441C5F60201C5
:102EE000884205D045F28041C5F6020188420BD1E7
:102EF000616EA26EE06E4A6030B1016821F48071AB
:102F00000160D4E91C014160012084F835000020F3
:102F1000002184F83410BDE8F081042101223DE74E
:102F2000F0B190F83510022918D180B540F20F4267
:102F30000168C4F20202914214DC6F23C4F202035E
:102F4000994224DC3F23C4F2020399423ADC102365
:102F5000C4F20203994258D0282352E080214165EF
:102F60000120704740F26F43C4F2020399421ADC19
:102F700040F23F43C4F2020399422ADC40F210437C
:102F8000C4F20203994240D040F2284339E09F2323
:102F9000C4F20203994225DC7023C4F20203994271
:102FA00033D088232DE040F29F43C4F202039942BC
:102FB0001FDC40F27043C4F20203994225D040F274
:102FC00088431EE04023C4F2020399421DD05823D7
:102FD00017E040F24043C4F20203994215D040F298
:102FE00058430EE0A023C4F2020399420DD0B82347
:102FF00007E040F2B843C4F20203994205D040F220
:10300000A043C4F2020399426ED191424FF00402F0
:1030100080F8352010DC6F20C4F20200814220DCF1
:103020003F20C4F20200814236DC1020C4F20200CC
:10303000814253D028204EE040F26F40C4F202009B
:1030400081421ADC40F23F40C4F2020081422ADC95
:1030500040F21040C4F2020081423FD040F22840CA
:1030600039E09F20C4F20200814225DC7020C4F2C6
:103070000200814232D088202DE040F29F40C4F20D
:10308000020081421FDC40F27040C4F20200814223
:1030900024D040F288401EE04020C4F20200814269
:1030A0001CD0582017E040F24040C4F20200814298
:1030B00014D040F258400EE0A020C4F20200814239
:1030C0000CD0B82007E040F2B840C4F202008142C0
:1030D00004D040F2A040C4F202008142086820F00F
:1030E00001000860002080BD0A6822F00E020A601C
:1030F00045F25742C5F6020291420A6822F00102E7
:103100000A600EDC45F22F42C5F60202914217DC3E
:1031100045F20842C5F60202914226D045F21C4211
:103120001FE045F27F42C5F60202914211DC45F2F2
:103130005842C5F60202914217D045F26C4210E0A7
:1031400045F23042C5F6020291420ED045F24442A9
:1031500007E045F29442C5F60202914205D045F2DD
:103160008042C5F6020291421AD1D0E9181CD0E97A
:1031700016E30A6822F480720A6003F01F0101223C
:1031800002FA01F1CEF80410816ECCF80410C16E81
:1031900031B10A6822F480720A60D0E91C124A60D8
:1031A000012180F83510016D0022002980F83420BB
:1031B00098D08847002080BD2DE9F04381B00021E0
:1031C000009140F2340148F2B513C2F20041C1F659
:1031D0004E33856D40F26F490A680168C4F20209F6
:1031E0002E68A2FB032849452B6815DC9F22C4F2F8
:1031F000020291422BDC5722C4F2020291424FDCC0
:103200001022C4F20202914278D02822C4F20202B3
:10321000914273D040226CE045F22F42C5F6020283
:10322000914227DC40F2B742C4F20202914243DCF1
:1032300040F27042C4F2020291425FD040F28842F2
:10324000C4F20202914259D040F2A04251E040F251
:103250002742C4F2020291423DDCA022C4F20202E3
:1032600091424BD0B822C4F20202914246D040F2C1
:1032700010423EE045F26B42C5F60202914275DC17
:1032800045F23042C5F60202914200F0828045F2DA
:103290004442C5F6020291427BD045F2584273E0A7
:1032A0005822C4F20202914228D07022C4F20202D3
:1032B000914223D088221CE040F2B842C4F20202BC
:1032C00091421BD045F20842C5F60202914260D0FD
:1032D00045F21C4258E040F22842C4F202029142F8
:1032E0000CD040F24042C4F20202914206D040F2B9
:1032F0005842C4F20202914240F02D84C26D08236C
:1033000002F01F029340334200F0168140F20F4456
:10331000C4F20204A1424FF0040413DC6F27C4F28C
:103320000207B94200F391803F27C4F20207B94275
:1033300000F3D2801027C4F20207B94200F0F080F7
:103340002827E8E0494500F38C8040F23F47C4F26B
:103350000207B94200F3C78040F21047C4F20207E7
:10336000B94200F0DD8040F22847D4E045F26C42DB
:10337000C5F6020291420CD045F28042C5F6020227
:10338000914206D045F29442C5F60202914240F0C5
:10339000E2830E68C26D02F01F02042707FA02F4EE
:1033A0001C4218BF16F004072CD1022707FA02F4BA
:1033B0001C4218BF16F0020762D1D3401B0740F130
:1033C000CA8316F0080300F0C68340F20F43C4F22C
:1033D000020399426FF01C0300F318836F27C4F2B5
:1033E0000207B94200F354833F27C4F20207B942EF
:1033F00000F3B4831027C4F20207B94200F0D3836C
:103400002827CAE332046C605ED4B20600F1A183BF
:1034100040F20F42C4F2020291426FF0080200F340
:10342000E3826F23C4F20203994200F302833F2335
:10343000C4F20203994200F347831023C4F202034B
:10344000994200F0838328237AE39F27C4F202077E
:10345000B94251DC7027C4F20207B94260D0882714
:1034600059E040F29F47C4F20207B9424BDC40F2F8
:103470007047C4F20207B94252D040F288474AE08E
:1034800032046C6000F19C82B20600F1CF8340F2FE
:103490000F42C4F2020291426FF0140200F3D6828E
:1034A0006F23C4F20203994200F315833F23C4F251
:1034B0000203994200F38C831023C4F20203994261
:1034C00000F0AB832823A2E3F10300F14283816C77
:1034D000002940F079833EE34027C4F20207B94255
:1034E0001ED0582717E040F24047C4F20207B94205
:1034F00016D040F258470EE0A027C4F20207B942A6
:103500000ED0B82707E040F2A047C4F20207B94244
:1035100006D040F2B847C4F20207B94218BF0824E7
:103520000F68274208D00F6827F004070F60AB60D0
:10353000436D43F0010343650123934033426FD051
:1035400040F20F47C4F20207B94210DC6F27C4F201
:103550000207B9421CDC3F27C4F20207B94232DC41
:103560001027C4F20207B94251D028274AE0494542
:103570001ADC40F23F47C4F20207B9422ADC40F2AB
:103580001047C4F20207B94241D040F2284739E05F
:103590009F27C4F20207B94225DC7027C4F2020754
:1035A000B94234D088272DE040F29F47C4F2020789
:1035B000B9421FDC40F27047C4F20207B94226D07C
:1035C00040F288471EE04027C4F20207B9421ED0ED
:1035D000582717E040F24047C4F20207B94216D01C
:1035E00040F258470EE0A027C4F20207B9420ED0BD
:1035F000B82707E040F2B847C4F20207B94206D044
:1036000040F2A047C4F20207B94240F0E1814F699D
:1036100007F0800424B1AB60436D43F002034365BF
:103620000423934033426FD040F20F47C4F20207A5
:10363000B94210DC6F27C4F20207B9421CDC3F27F5
:10364000C4F20207B94232DC1027C4F20207B942C1
:1036500051D028274AE049451ADC40F23F47C4F2DE
:103660000207B9422ADC40F21047C4F20207B9420D
:1036700041D040F2284739E09F27C4F20207B942FF
:1036800025DC7027C4F20207B94234D088272DE028
:1036900040F29F47C4F20207B9421FDC40F2704774
:1036A000C4F20207B94226D040F288471EE0402704
:1036B000C4F20207B9421ED0582717E040F2404733
:1036C000C4F20207B94216D040F258470EE0A027D4
:1036D000C4F20207B9420ED0B82707E040F2B8475B
:1036E000C4F20207B94206D040F2A047C4F2020772
:1036F000B94240F073810F6807F0020424B1AB6057
:10370000436D43F004034365102303FA02F232428F
:103710007ED040F20F43C4F2020399424FF00803F7
:1037200010DC6F27C4F20207B9421CDC3F27C4F249
:103730000207B94232DC1027C4F20207B94251D065
:1037400028274AE049451ADC40F23F47C4F2020705
:10375000B9422ADC40F21047C4F20207B94241D014
:1037600040F2284739E09F27C4F20207B94225DC1E
:103770007027C4F20207B94234D088272DE040F206
:103780009F47C4F20207B9421FDC40F27047C4F2FF
:103790000207B94226D040F288471EE04027C4F213
:1037A0000207B9421ED0582717E040F24047C4F242
:1037B0000207B94216D040F258470EE0A027C4F2E3
:1037C0000207B9420ED0B82707E040F2A047C4F282
:1037D0000207B94206D040F2B847C4F20207B94224
:1037E00018BF04230F681F4212D0AA600A68520350
:1037F0000A6806D4D20506D40A6822F008020A60D4
:1038000001E0110352D4016C11B1044688472046EF
:10381000C16D01F01F02202101FA02F3334200F0D2
:10382000A68040F20F470168C4F202071026B94291
:1038300010DC6F27C4F20207B9421CDC3F27C4F238
:103840000207B94236DC1027C4F20207B94255D04C
:1038500028274EE049451ADC40F23F47C4F20207F0
:10386000B9422EDC40F21047C4F20207B94245D0FB
:1038700040F228473DE09F27C4F20207B94229DC05
:103880007027C4F20207B94238D0882731E040F2ED
:103890009F47C4F20207B94223DC40F27047C4F2EA
:1038A0000207B9422AD040F2884722E0816C002901
:1038B000ABD1ADE74027C4F20207B9421ED058276A
:1038C00017E040F24047C4F20207B94216D040F276
:1038D00058470EE0A027C4F20207B9420ED0B8271D
:1038E00007E040F2A047C4F20207B94206D040F216
:1038F000B847C4F20207B94218BF02260F68374220
:1039000035D0AB6090F83530042B0B6816D123F01E
:1039100016030B604B6923F080034B61036C0BB9FA
:10392000836C1BB10B6823F008030B603F219140AF
:10393000A960012180F83510016D3FE15A030A6842
:103940000CD4D2050ED40A6822F010020A600121BC
:1039500080F83510002180F8341003E0110301D401
:10396000416C00E0C16B11B1044688472046416DAF
:10397000002900F0F080416DC9071CD0042180F8B7
:10398000351001684FEA98220B6823F001030B60A1
:10399000009B01330093934202D80B68DB07F7D1F9
:1039A0000968C9074FF0030108BF012180F83510ED
:1039B000002180F83410C16C002940F00581CAE074
:1039C000F10300F13381416C002940F0FD80C2E039
:1039D00000240F68002C7FF41EAE21E600240F683F
:1039E000002C7FF48CAE8FE6494542DC40F23F4329
:1039F000C4F2020399427CDC40F21043C4F2020399
:103A0000994200F0A38040F2284399E049454CDCFC
:103A100040F23F47C4F20207B94200F3A68040F2E9
:103A20001047C4F20207B94200F0BD8040F22847B7
:103A3000B3E09F23C4F20203994263DC7023C4F213
:103A40000203994200F08280882379E0494560DCD6
:103A500040F23F43C4F20203994200F3C08040F2B7
:103A60001043C4F20203994200F0D78040F2284389
:103A7000CDE040F29F43C4F20203994258DC40F289
:103A80007043C4F20203994260D040F2884357E089
:103A90009F27C4F20207B94270DC7027C4F2020704
:103AA000B94200F08080882777E040F29F47C4F257
:103AB0000207B94269DC40F27047C4F20207B9421A
:103AC00071D040F2884768E04023C4F20203994273
:103AD0003CD0582334E09F23C4F20203994200F300
:103AE00087807023C4F20203994200F096808823F5
:103AF0008DE040F24043C4F20203994226D040F2E6
:103B000058431DE0A023C4F2020399421ED0B823FB
:103B100016E040F29F43C4F2020399426FDC40F288
:103B20007043C4F20203994277D040F288436EE0BA
:103B300040F2A043C4F20203994207D040F2B843D6
:103B4000C4F20203994218BF6FF004020B681A40D6
:103B50000A60016CC1BB01B0BDE8F0834027C4F22C
:103B60000207B9421FD0582717E040F24047C4F27D
:103B70000207B94217D040F258470EE0A027C4F21E
:103B80000207B9420FD0B82707E040F2A047C4F2BD
:103B90000207B94207D040F2B847C4F20207B9425F
:103BA00018BF6FF00E030F683B400B60012101FA54
:103BB00002F26A60416580F83510C16C00294FF04F
:103BC000000280F83420C6D001B0BDE8F0430847B9
:103BD0004023C4F2020399421FD0582317E040F259
:103BE0004043C4F20203994217D040F258430EE01A
:103BF000A023C4F2020399420FD0B82307E040F299
:103C0000A043C4F20203994207D040F2B843C4F281
:103C10000203994218BF6FF00A020B681A400A604B
:103C2000012180F83510002180F83410C16B002983
:103C3000CAD190E7000000002DE9F041044601F0F0
:103C400013FCECB140F26F4805462068C4F202084C
:103C5000404518DC9F21C4F2020188422EDC572126
:103C6000C4F20201884254DC1021C4F202018842ED
:103C70007ED02821C4F20201884279D0402172E02E
:103C80000120BDE8F08145F22F41C5F602018842CE
:103C900027DC40F2B741C4F20201884245DC40F221
:103CA0007041C4F20201884262D040F28841C4F2FD
:103CB000020188425CD040F2A04154E040F227412A
:103CC000C4F20201884240DCA021C4F20201884211
:103CD0004ED0B821C4F20201884249D040F21041CE
:103CE00041E045F26B41C5F60201884200F3B8801D
:103CF00045F23041C5F60201884200F0C38045F22A
:103D00004441C5F60201884200F0BC8045F25841AA
:103D1000B4E05821C4F20201884229D07021C4F2D3
:103D20000201884224D088211DE040F2B841C4F24B
:103D3000020188421CD045F20841C5F602018842C2
:103D400000F0A08045F21C4198E040F22841C4F206
:103D5000020188420CD040F24041C4F20201884284
:103D600006D040F25841C4F20201884240F0CE80B1
:103D7000022184F83510002184F83410016821F004
:103D80000101016020680168C9070CD001F06CFBDB
:103D9000401B0628F6D320206065032084F83500F8
:103DA0000120BDE8F08148F23F0204F108070168F4
:103DB000CFF61062114066698CCF1143D4F818C059
:103DC0001943E3693943276A0E43616A334304297F
:103DD00043EA070343EA0C0303D1D4E90B763743E4
:103DE0003B436568A5F12906292E00F2A180012731
:103DF000DFE806F01515151515159E9E9E9E9E9ED4
:103E00009E9E9E9E9E9E9E9E9E9E151515159E9EF6
:103E10009E9E15159E9E9E9E9E9E15151515002F05
:103E200018BF43F4801304290360426922F007029B
:103E300041EA020140F09080D4E90A53002B41EAA4
:103E4000050100F08980BCF5005F61D0BCF1000F76
:103E50006AD1022D74D0012D60D0002D70D072E097
:103E600045F26C41C5F6020188420BD045F2804113
:103E7000C5F60201884205D045F29441C5F602011B
:103E8000884243D104F1080E022184F83510002144
:103E900084F834100168A3699EE80450A2F18005FB
:103EA000E769B5FA85F566696D09402A4FEA8535F7
:103EB00043EA07026FF3101142EA060208BF102519
:103EC00041EADC0142EA0E022943236A41EAD201B7
:103ED0004AF6F832CAF2FD724CF6CD470244CCF6EF
:103EE000CC4741EA1311A2FB072301606FF00300E6
:103EF00000EA9300E0652046FEF726FBE16D012213
:103F000001F01F0102FA01F1416030E0402043E777
:103F1000032D18D8DFE805F00A140A02A3F1C072D5
:103F2000B2FA82F252090FE0032D08D201220BE00F
:103F300025F00302743AB2FA82F257096FE702D110
:103F4000C3F3006200E0002232B14020606501202E
:103F500084F83500BDE8F08141612046FEF7F4FAAF
:103F6000E16D3F2201F01F0102FA01F1816020683A
:103F7000404519DC9F21C4F20201884231DC5721FF
:103F8000C4F20201884256DC1021C4F202018842C8
:103F900000F092802821C4F20201884200F08C8057
:103FA0004021C4F2020184E045F22F41C5F602012E
:103FB00088422BDC40F2B741C4F20201884248DC5F
:103FC00040F27041C4F20201884275D040F288414B
:103FD000C4F2020188426FD040F2A041C4F2020153
:103FE00067E040F22741C4F20201884240DCA02190
:103FF000C4F2020188425FD0B821C4F202018842B3
:104000005AD040F21041C4F2020152E045F26B4135
:10401000C5F6020188423CDC45F23041C5F602019A
:10402000884249D045F24441C5F60201884243D056
:1040300045F258413BE05821C4F2020188423BD08E
:104040007021C4F20201884236D08821C4F20201F4
:104050002FE040F2B841C4F2020188422CD045F270
:104060000841C5F60201884226D045F21C411EE0F7
:1040700040F22841C4F2020188421DD040F2404182
:10408000C4F20201884217D040F25841C4F2020142
:104090000FE045F26C41C5F6020188420CD045F2B2
:1040A0009441C5F60201884206D045F28041C5F62A
:1040B0000201884240F0D08045F2574C45F6FC0E94
:1040C000C5F6020CC5F6020E60450EDC45F22F4324
:1040D000C5F60203984217DC45F20843C5F6020311
:1040E000984226D045F21C431FE045F27F43C5F6B7
:1040F0000203984211DC45F25843C5F60203984288
:1041000017D045F26C4310E045F23043C5F6020388
:1041100098420ED045F2444307E045F29443C5F679
:104120000203984205D045F28043C5F60203984247
:1041300050D100F0FC034CF6CD47083BCCF6CC4701
:10414000A3FB0737AEF1FC05AEF17C063B0905EB9E
:1041500083022266A26803F01F030127802A666695
:1041600007FA03F2A26601D1002262606368A56EBD
:10417000D4E91826DFB2591E07291760756015D8D3
:104180007E1E072E62D860450EF1440213DC45F214
:104190002F41C5F6020188423CDC45F20841C5F6D4
:1041A000020188424BD045F21C4144E00020606788
:1041B000C4E91B0050E045F27F41C5F60201884288
:1041C00031DC45F25841C5F60201884237D045F24C
:1041D0006C4130E000F0F8034AF6AB27103BCAF61A
:1041E000AA27A3FB073740F20F43C4F202030825B6
:1041F0003E09984203F1AA02334688BF05EB171324
:1042000040F600059042C4F2020528BF334605F18E
:1042100080069CE745F23041C5F6020188420ED087
:1042200045F2444107E045F28041C5F6020188426B
:1042300005D045F29441C5F60201884213D10EEB38
:104240008300E06601202267B040606704F16C02E1
:10425000002307CA03604A6000206065012184F8DA
:104260003510BDE8F08140F60000C4F2020000F114
:10427000FC0E00F5A072E2E730B110B590F83440C2
:10428000012C03D1022010BD01207047012480F8C9
:10429000344090F83540012C2BD1022480F8354071
:1042A00000244465D0F800C0DCF8004024F001048C
:1042B000CCF800400446FEF7D3F940F20F4C2068DA
:1042C000C4F2020C40F26F416045C4F2020118DCF6
:1042D0006F23C4F20203984224DC3F23C4F202039A
:1042E00098423ADC1023C4F20203984259D02823A2
:1042F00052E04FF400614165002180F83410012044
:1043000010BD88421ADC40F23F43C4F202039842D7
:104310002ADC40F21043C4F20203984241D040F23A
:10432000284339E09F23C4F20203984225DC70231E
:10433000C4F20203984234D088232DE040F29F4318
:10434000C4F2020398421FDC40F27043C4F202033D
:10435000984226D040F288431EE04023C4F2020374
:1043600098421ED0582317E040F24043C4F20203A3
:10437000984216D040F258430EE0A023C4F2020344
:1043800098420ED0B82307E040F2B843C4F20203CB
:10439000984206D040F2A043C4F20203984240F093
:1043A000238103680B2262F344030360226C1AB179
:1043B000082302681A430260884219DC9F22C4F273
:1043C0000202904231DC5722C4F20202904256DCD3
:1043D0001022C4F20202904200F091802822C4F21E
:1043E0000202904200F08B804022C4F2020284E07C
:1043F00045F22F42C5F6020290422BDC40F2B74252
:10440000C4F20202904248DC40F27042C4F202025E
:10441000904274D040F28842C4F2020290426ED0C0
:1044200040F2A042C4F2020267E040F22742C4F226
:104430000202904240DCA022C4F2020290425ED00E
:10444000B822C4F20202904259D040F21042C4F2A3
:10445000020252E045F26B42C5F6020290423CDC99
:1044600045F23042C5F60202904248D045F244423D
:10447000C5F60202904242D045F258423BE0582233
:10448000C4F2020290423AD07022C4F20202904278
:1044900035D08822C4F202022FE040F2B842C4F2C2
:1044A000020290422BD045F20842C5F60202904229
:1044B00025D045F21C421EE040F22842C4F202021E
:1044C00090421CD040F24042C4F20202904216D008
:1044D00040F25842C4F202020FE045F26C42C5F6C7
:1044E000020290420BD045F29442C5F6020290427D
:1044F00005D045F28042C5F6020290426ED1236E8D
:104500001A68D20303D51A6842F480721A60E36E07
:104510001BB11A6842F480721A60604510DC6F218A
:10452000C4F2020188421CDC3F21C4F2020188422D
:1045300032DC1021C4F2020188424FD028214AE027
:1045400088421ADC40F23F41C4F2020188422ADC70
:1045500040F21041C4F2020188423FD040F22841AB
:1045600039E09F21C4F20201884225DC7021C4F2A7
:104570000201884232D088212DE040F29F41C4F2EE
:10458000020188421FDC40F27041C4F202018842FD
:1045900024D040F288411EE04021C4F2020188424A
:1045A0001CD0582117E040F24041C4F20201884279
:1045B00014D040F258410EE0A021C4F2020188421A
:1045C0000CD0B82107E040F2B841C4F202018842A1
:1045D00004D040F2A041C4F202018842016841F0D7
:1045E00001010160002010BD0268052363F343024E
:1045F0000260226C002A3FF4DFAE0423D9E60000FB
:10460000B0B5044600F030FF40F2C0110546C2F2DA
:104610000041621C097818BF0C4400BF00F024FF61
:10462000401BA042FAD3B0BD90F89830013B012B5B
:104630000BD80068836D0B420CD0836D0B408B420E
:104640000CD1C36D43F0020309E000F19C0101208D
:10465000022221E0C36D43F0010300E00323C365A0
:104660008B0504D5D0F8E0301343C0F8E0304B059B
:1046700004D5D0F8E4301A43C0F8E4204FF6FF72B6
:10468000436DC3F6CF720A401A4342658A0F4AF659
:1046900014010020C4F200010B681A430A6070473D
:1046A00090F89830022B1BD1B0B50368D3F8C050F6
:1046B00015F07C5F1CD0D3F8C450AD021DD4D3F8E4
:1046C000C4300546C3F304442346FEF779F928684D
:1046D0000121A140C0F8D0100020C5F89410B0BD51
:1046E000D0F89C1041F00801C0F89C1001207047E0
:1046F000D0F89C1041F0200103E0D0F89C1041F468
:104700000071C0F89C100120B0BD00000000000046
:10471000704700000000000090F89820013A012A3C
:104720000BD880B50A68002ACA680ED00B69072A20
:1047300043EA427E16D18B6919E0D0F89C1041F013
:104740000201C0F89C1001207047072A18D10A699D
:10475000D1E906C3120442EA032242EA0C0242F003
:10476000605217E0D1F808C04B6943EA8C73006FC0
:10477000496800EBC10240F831E05360002080BD81
:104780008B68D1E904CE9B0743EAC26242EA0C423D
:1047900042EA0E024968C06E40F82120002080BD28
:1047A000704700000000000070470000000000009B
:1047B00070B590F89850022D11D1402914D1046899
:1047C000D4F8A05015F4FE0F2BD0D4F8A4506D06E9
:1047D0002CD0D4F8A450ED0130D4002531E0D0F82D
:1047E0009C1041F0080125E041290FD10468D4F85C
:1047F000B05015F4FE0F14D0D4F8B4506D0615D097
:10480000D4F8B450ED0126D4002527E0056DA94267
:1048100007D200F17C04D0F854E04FF0000C0D46B4
:1048200026E0D0F89C1041F0200103E0D0F89C1065
:1048300041F48071C0F89C10012070BDD4F8A050E4
:10484000ED0FD4F8A440C4F3052404EB050E00F1E9
:104850007404456C0BE0D4F8B050ED0FD4F8B440BC
:10486000C4F3052404EB050E00F17804C56CF4468E
:1048700005FB0EFE256855F82E4014F08044546068
:1048800055F82E4024F0604608BFC4F38A461660EF
:1048900055F82E4004F00054946005EB8E0455F852
:1048A0002E6006F000461661A688D661E68816F0EE
:1048B0000F06D660666806F480165661666806F4D0
:1048C00000169661E67906F07F06166266684FEA82
:1048D000D67656620ED040F2C44E04F1080500248C
:1048E000C0F6010E2E5D1E550134D6681EF8066016
:1048F000B442F7D3402904D10068C0F8A8C0002012
:1049000070BD412904D10068C0F8B8C0002070BD56
:104910001F2907D80068012202FA01F1C0F8981097
:10492000002070BD006801F01F01012202FA01F1B0
:10493000C0F89C10002070BD70470000000000000F
:104940002DE9F04F87B004464AF61000C4F200008B
:1049500001684AF61400C4F20000026820680A40A8
:10496000D0F850B0D0F85490056D466D036D0293A9
:10497000436D0193036D0693436D0593036D04939B
:10498000436D0393D0F854A0D0F850805FEACA5327
:1049900010D518F480710DD04FF4807101654AF67E
:1049A00010010020C4F20001174608602046FFF7FE
:1049B000C3FF3A460BEA090B4AF610095FEA4A5070
:1049C000C4F200094FEA82771AD518F4806017D034
:1049D00020689146D0F8DC10D0F8E42011404FF464
:1049E000806202654AF61002C4F2000200201060E4
:1049F000204600F055FC4A464AF61009C4F2000968
:104A000005EA06050BF4704657B1206800210165E0
:104A100002F00300C9F8000020463946FFF778FE8F
:104A2000DDE9011000EA010705F00F0546B1206835
:104A3000314606650020C9F80000204600F038FC29
:104A400007F0F00645B12068294605650020C9F841
:104A50000000204600F0E4FB46B1206831460665C0
:104A60000020C9F80000204600F0E2FB5FEA0A508F
:104A70000CD518F4006009D020684FF4006101657E
:104A80000020C9F80000204600F016FC5FEA8A50BA
:104A900011D518F400700ED02068D0F8D810D0F8D6
:104AA000E02011404FF4007202650020C9F80000B8
:104AB000204600F0F9FB5FEA0A300CD518F400201C
:104AC00009D020684FF4002101650020C9F80000DA
:104AD000204600F0A1FB5FEACA300CD518F4803004
:104AE00009D020684FF4803101650020C9F800002A
:104AF000204600F0D1FB5FEA4A30DDE9031000EA0E
:104B000001050CD518F4802009D020684FF48021CD
:104B100001650020C9F80000204600F0B9FB5FEAFB
:104B20008A30DDE9051000EA010005F060710FD55B
:104B300018F400320CD022684FF4003313650022C1
:104B4000C9F80020D4F89C2042F08002C4F89C20D0
:104B500000F0715539B1206801650020C9F80000E6
:104B60002046FFF721FE4DB1206805650020C9F8F9
:104B70000000D4F89C002843C4F89C002068A9F5E4
:104B80000161884209D0D4F89C00002868D02046F2
:104B900007B0BDE8F04FFFF703BE60688168890782
:104BA000F1D0016A426A036A476A114003EA0702C8
:104BB00002F03005D0F82080D0F82490D0F820B052
:104BC000466A026A069211F00F01426A0592D0F815
:104BD00024A0026A049203D00162204600F04CFB3C
:104BE00008EA09072DB1606829460562204600F0F1
:104BF0004BFB5FEA4A6006EA0B0607F4C0750ED568
:104C0000049810F040000AD060684023C16BC26B6A
:104C1000090C02F03F020362204600F031FBDDE99F
:104C2000051000EA010706F4FC462DB1606829462C
:104C30000562204600F01CFB07F4F02036B16168E5
:104C40000E62D4F89C103143C4F89C1000289AD00E
:104C500061680862D4F89C100843C4F89C0092E78D
:104C600007B0BDE8F08F000040B32DE9F04F83B0EE
:104C70004AF200080446C4F200080068404502D128
:104C800008F58070606094F8980028B9002084F8D6
:104C90009900204600F0CCF92068816921F01001CC
:104CA000816100F0E1FB054620688169090707D5AD
:104CB00000F0DAFB401B0B28F6D312E0012070470E
:104CC000816941F00101816100F0CEFB054600BF22
:104CD00020688169C90711D100F0C6FB401B0B2871
:104CE000F6D30120D4F89C100843C4F89C0003209C
:104CF00084F89800012003B0BDE8F08F816941F08D
:104D000002018161217C826922F04002012918BFE1
:104D100040328261617C826922F48042012908BFAD
:104D200002F580428261A17C826922F480520129CD
:104D300018BF02F580528261816921F44073D4E981
:104D400002120B438361836923F0A4038361036927
:104D500023F0100303619AB1012A0DD0022A09D071
:104D60008369032A43F080038361036943F01002DF
:104D7000026105D1202200E0042283691A43826186
:104D8000D4E90572E369561E6FF0FF02256A02EB53
:104D90000323B1F5407F43EA4663A5F1010646EAE5
:104DA000030640F20003CFF6FF7303EB074746EA22
:104DB0000701C16110D1D4E90B65D4E90917013F9E
:104DC00002EB06226FF00F063A4306EB05173A4353
:104DD00003EB01411143C160236E2BB1616ED0F82A
:104DE000C0201143C0F8C010E16DCDE90113D942D4
:104DF00040F22831C0F6010109D0D0F8C820A36ED6
:104E000022F0070251F823301A43C0F8C820D4F822
:104E100040C0BCF1000F09D0D0F8BC20636C22F078
:104E2000070251F823301A43C0F8BC20D4F848B028
:104E3000BBF1000F0AD0D0F8BC20E36C22F0700266
:104E400051F8233042EA0312C0F8BC20D4F850A035
:104E5000BAF1000F0AD0D0F8BC20636D22F4E062F2
:104E600051F8231042EA0121C0F8BC10404504D19A
:104E700061688A6822F003028A600021C4F89410F5
:104E8000C4F89C10012184F8981004F13409D0F87A
:104E900084104FF6FC729143656C99E80C02009502
:104EA00041EA8201C0F88410D0F8841021F47F0117
:104EB00041EA0341C0F884109918D0F888306FF3A4
:104EC0008F0343EA8103C0F88830D0F8883023F498
:104ED000FE0343EA0943C0F8883001EB4903D0F8E8
:104EE000A0606FF38F0646EA8306C0F8A060D0F892
:104EF000A06026F4FE0646EA0C46C0F8A06005FB5A
:104F00000C36D0F8B0306FF38F0343EA8603C0F855
:104F1000B030D0F8B03023F4FE0343EA0B43C0F8BE
:104F2000B030E36CD0F8AC506FF38F0503FB0B6629
:104F300045EA8605C0F8AC50D4F8548008FB0A65F1
:104F4000D0F8F0606FF38F0646EA8506C0F8F0608F
:104F5000D0F8F0E0A66D2EF47C1747EA0647C0F8BB
:104F6000F070F70007EB8507D0F8C0506FF38F059E
:104F70002F43C0F8C070D0F8C070009DDDF804E089
:104F800027F47C1705FB0CFC4AF2000547EA0E47A4
:104F9000C0F8C070C4F2000503FB0BC305F5406701
:104FA000D0F8C05007EB820207EB810125F07C5757
:104FB000029D47EA0567C0F8C07001EBC90008FB15
:104FC0000A372167A16E00EB8C0C606700EB83034E
:104FD000E266C4E91EC30EFB01F300EB87006943E0
:104FE000C4F8800000EBC600C4F8840000EB830026
:104FF000C4F8880000EB81004DF2FC31C4F20001DE
:10500000C4F89000884201D920206BE6824208D281
:10501000002000BF42F8040BD4F890108A42F9D364
:1050200069E6002003B0BDE8F08F0000000000003A
:10503000B0B5B6B0044602A8B8210025CDE9345574
:10504000CDE932553195FBF746FB4DF20041206822
:10505000C4F20001884200F096804AF20041C4F296
:10506000000188424BD04AF20001C4F2000188429C
:1050700040F0D080002003904FF4004002904FF0A9
:1050800080501D9002A801F02FFB08B1FDF768FCCD
:1050900040F2DC3144F2E040C2F20041C5F60200C9
:1050A0000A68002A02F101020A6008D1C16841F4CD
:1050B0008071C160C16801F480710191019901683A
:1050C00041F008010160006840F2004100F0080072
:1050D0000190C5F602010198032031900220329020
:1050E0000020CDE933000920359001F5006031A999
:1050F00000F0E6F8132006210022132485E00020AA
:1051000003904FF4004002904FF080501D9002A891
:1051100001F0EAFA08B1FDF723FC40F2DC3144F279
:10512000E040C2F20041C5F602000A68002A02F11E
:1051300001020A6008D1C16841F48071C160C16890
:1051400001F4807101910199016841F0020101604F
:10515000006831A900F00200019001984FF440501E
:105160003190022032900020CDE9330009203590A3
:1051700040F20040C5F6020000F0A2F8142007211A
:105180000022142441E04FF4004002904FF0805080
:105190001D9002A8039501F0A7FA08B1FDF7E0FB06
:1051A00040F2DC3144F2E040C2F20041C5F60200B8
:1051B0000A68002A02F101020A6008D1C16841F4BC
:1051C0008071C160C16801F4807101910199016829
:1051D00041F0200101600068002100F020000190F2
:1051E0000198C020CDE9331140F200413190C5F65D
:1051F000020102203290359001F5805031A900F073
:105200005FF89F20082100229F2400F045FA2046E5
:1052100000F02EFA36B0B0BD70470000000000006C
:10522000C90708BF704707F057BE00000000000024
:10523000704700000000000090F8981001290CD180
:10524000022180F8981001688A6922F001028A61BF
:105250000021C0F89C1000207047D0F89C1041F04D
:105260000401C0F89C1001207047000000000000FD
:1052700070470000000000007047000000000000C0
:1052800070470000000000007047000000000000B0
:1052900070470000000000007047000000000000A0
:1052A0007047000000000000704700000000000090
:1052B0007047000000000000704700000000000080
:1052C0002DE9F04F83B00E68002E00F0C78000F18A
:1052D000264742F2004507F1FF77C5F602050A228C
:1052E000A8424FEAB72500F1200308BF0922009326
:1052F000082D38BF4FEAB722002400274FF0000ADC
:1053000001920AE00AF1010A0E6836FA0AF207F180
:10531000020704F1040400F0A180012202FA0AFB52
:1053200016EA0B08EED0D1F80490032209F0030E20
:10533000AEF10106012E02FA07F610D8D0F808C027
:10534000CD682CEA0602BD402A438260C9F30015ED
:10535000426822EA0B0205FA0AF52A434260BEF1CE
:10536000030F1FD0C2688D68B243BD40BEF1020F6B
:1053700042EA0502C26015D16FF00302009D02EA05
:105380005A0B04F01C030F2255F80BC002FA03FE5F
:10539000D1F810902CEA0E0C09FA03F343EA0C033F
:1053A00045F80B3002684B68B24303F00306BE4079
:1053B00013F4403F42EA06020260A3D044F2F443F1
:1053C00040F2084CC5F60203C5F6000C0F251A681A
:1053D00042F002021A601A6802F0020202922AF0F7
:1053E0000302029B04F00C0352F80C609D40AE4394
:1053F000019D05FA03F3334342F80C304FF0B04CF3
:10540000DCF800204B6842EA0806DD0258BF22EAB9
:1054100008069D02CCF8006040F2040CC5F6000CB2
:10542000DCF8002042EA080658BF22EA08069D037D
:10543000CCF80060DCF8802042EA080658BF22EA77
:105440000806DB03CCF88060DCF87C2042EA080622
:1054500058BF22EA0806CCF87C6053E703B0BDE8E9
:10546000F08F00000000000046F25060C2F20040E1
:10547000006870470000000040F2C01046F2506122
:10548000C2F20040C2F2004100780A68104408608D
:10549000704700000000000080B5032000F02CF9E8
:1054A00001F0B2FF44F2184140F28033C5F6020128
:1054B000C0F601030A68C2F303229A5C096801F08E
:1054C0000F0102F01F02595CD04040F23802C2F2D4
:1054D000004201F01F0120FA01F1116040F2340195
:1054E000C2F2004108600F2000F00AF800281CBF3B
:1054F000012080BD00F0A4F8002080BD0000000065
:105500000F2843D8B0B58AB004462C20002221468B
:10551000002500F0C1F82C2000F0AAF840F2C410D9
:10552000C2F20040046044F2F040C5F60200016897
:1055300041F002010160006801A900F00200029040
:10554000029802A801F0ACFE01F02EFF4DF6836137
:105550004000C4F21B3140F20042A0FB010142F2C4
:10556000F020C2F200404FF0FF33C4F201020260AB
:1055700003EB9141C0E9011540F2E731C0E90315A1
:1055800002F036FB20B101200AB0B0BD0120704707
:1055900042F2F020C2F2004002F096FB0AB0B0BD29
:1055A00010B54EF6A05E4378CEF2000E90F800C023
:1055B0004EF8083CDEF8003023F00103CEF800304E
:1055C00043684EF8043C037BC27A817A447B12061E
:1055D00042EA0372837B42EAC141C27B41EA8441D1
:1055E000447A41EA4341007A41EA024141EA042116
:1055F00041EA400040EA0C00CEF8000010BD000077
:105600004EF62450CEF20000BFF35F8F016821F404
:105610008031016000210167704700000000000038
:105620004EF6245140F00100CEF2000108670868F0
:1056300040F480300860BFF34F8FBFF36F8F704727
:1056400081B044F2F4400022C5F60200016841F046
:105650000201016000680F2100F0020000906FF06D
:105660000100009B01B000F017B80000000000002E
:10567000002848BF704700F01F01012202FA01F123
:105680004EF20012C0F34A10CEF2000242F820108F
:10569000704700000000000070B54EF60C5C4FF043
:1056A000FF36CEF2000C00F1604505F56445DCF8EC
:1056B0000030C3F3022E8EF00703042B28BF04230F
:1056C000BEF1030406FA03F321EA030100F00F031D
:1056D00038BF0024043B0028634406FA04F048BFA6
:1056E00003F10C05A14022EA0000084300012870E4
:1056F00070BD0000000000004EF60C514FF6FF0395
:10570000CEF200010A681A4060F30A2242F080607B
:1057100040F0FD700860704701680122C0F8D8248D
:10572000002280F8CC24886940F000608861486DD0
:1057300040F08052002042F003024A6570470000AA
:1057400070470000000000000268002051627047AE
:10575000B0B5D0F800E0DEF82400D1B1DEF8283092
:10576000B1F1010C00EB13430BD05FFA8CF10EF595
:105770008070002450F8045F01348C4203EB154321
:10578000F8D30EEB8C0043EA0241C0F8041100206C
:10579000B0BD40EA0240CEF828000020B0BD0000B5
:1057A000D0F8E00404F084BE01EBC10200EB8202F9
:1057B000D0F8E004126A04F0E7BD00000000000029
:1057C00001EBC10200EB8202D0F8E004D2F86022C3
:1057D00004F032BE00000000D0F8E00404F06CBE1B
:1057E00010B54FFA81FC0A4601F00F0E4FF4157107
:1057F000BCF1000F4FEAD21248BF14210EEBCE0CC1
:1058000090F89444431803EB8C01012C03F82CE02E
:105810004A7001D1022010BD012280F89424026850
:105820000446104605F0BCFB002084F8940410BD2B
:10583000B0B5027901F00F03934201D90120B0BD48
:105840004AB24FF41574002A03EBC30E48BF142468
:10585000C909021990F8944402EB8E0C012C4FF008
:1058600000048CF801108CF8024002F82E3001D1AF
:105870000220B0BD012180F8941401680546084655
:10588000614605F019FD204685F89444B0BD00003E
:1058900001F00F0101EBC10100EB8100D0F86802BB
:1058A000704700000000000070B58C464FF415747E
:1058B00049B20CF00F0E6FF3DF22002948BF142409
:1058C0000EEBCE0604445FEADC1504EB860104F817
:1058D00026E04D708A600B7118BFA1F81AE0022B08
:1058E00001D100224A7190F89424012A01D10220AA
:1058F00070BD012280F8942402680446104605F029
:1059000057FA002084F8940470BD000000000000E5
:1059100080B501F00F0C0CEBCC0100EB810E0021E7
:10592000CEE998238379CEF868128EF855120EF5D9
:105930001571012B8EF854C208BFCA6100681A465F
:1059400005F002FD002080BDB0B5027901F00F0422
:1059500094424FF001022AD84BB24FEAD11C002BDF
:105960004FF4157548BF214648BF142590F894E4BC
:1059700001EBC1030544BEF1010F05EB830105F8FE
:10598000234081F801C08A7001D10220B0BD80F8A7
:1059900094240546006805F0B7FC2CB9A97928685D
:1059A00005F29C4205F058FC002285F8942410462C
:1059B000B0BD00000000000080B501F00F0C90F8B1
:1059C00006E00CEBCC01BEF1010F00EB810101F808
:1059D00014CF4FF0000C0B614FF00103CA60C1F807
:1059E00014C04B7008BFCA610068724605F0ACFC79
:1059F000002080BD000000002DE9F04F87B0056851
:105A00008246284605F020FE10B107B0BDE8F08FB1
:105A1000DAF8000005F048FE0028F6D0D5F80808AE
:105A2000C0F30D20CAF8D404DAF8000005F03CFEFB
:105A3000800705D5DAF80000416901F002014161F3
:105A400005F500600590DAF8000005F02DFEC006AF
:105A5000069536D5DAF80000816921F010018161E0
:105A60002C6A04F00F0000EBC001C4F343400AEBC2
:105A70008101062801F5157511D002281AD147F6C3
:105A8000F07014EA000615D03409E9680698224639
:105A900005F00EFEE86800EB1610E86007E00AF279
:105AA0009C410822069805F003FEC4F30A146869B5
:105AB00020446861DAF80000816941F010018161D9
:105AC000069DDAF8000005F0EFFD000340F1F280DA
:105AD000DAF8000005F0C4FD002800F0EB8006466F
